{
	"_format": "hh-sol-artifact-1",
	"contractName": "Save_The_Environment",
	"sourceName": "contracts/Save_The_Environment.sol",
	"abi": [
		{
			"inputs": [
				{
					"internalType": "string",
					"name": "baseURI",
					"type": "string"
				}
			],
			"stateMutability": "nonpayable",
			"type": "constructor"
		},
		{
			"anonymous": false,
			"inputs": [
				{
					"indexed": true,
					"internalType": "address",
					"name": "owner",
					"type": "address"
				},
				{
					"indexed": true,
					"internalType": "address",
					"name": "approved",
					"type": "address"
				},
				{
					"indexed": true,
					"internalType": "uint256",
					"name": "tokenId",
					"type": "uint256"
				}
			],
			"name": "Approval",
			"type": "event"
		},
		{
			"anonymous": false,
			"inputs": [
				{
					"indexed": true,
					"internalType": "address",
					"name": "owner",
					"type": "address"
				},
				{
					"indexed": true,
					"internalType": "address",
					"name": "operator",
					"type": "address"
				},
				{
					"indexed": false,
					"internalType": "bool",
					"name": "approved",
					"type": "bool"
				}
			],
			"name": "ApprovalForAll",
			"type": "event"
		},
		{
			"anonymous": false,
			"inputs": [
				{
					"indexed": true,
					"internalType": "address",
					"name": "previousOwner",
					"type": "address"
				},
				{
					"indexed": true,
					"internalType": "address",
					"name": "newOwner",
					"type": "address"
				}
			],
			"name": "OwnershipTransferred",
			"type": "event"
		},
		{
			"anonymous": false,
			"inputs": [
				{
					"indexed": true,
					"internalType": "address",
					"name": "from",
					"type": "address"
				},
				{
					"indexed": true,
					"internalType": "address",
					"name": "to",
					"type": "address"
				},
				{
					"indexed": true,
					"internalType": "uint256",
					"name": "tokenId",
					"type": "uint256"
				}
			],
			"name": "Transfer",
			"type": "event"
		},
		{
			"inputs": [],
			"name": "MAX_PER_MINT",
			"outputs": [
				{
					"internalType": "uint256",
					"name": "",
					"type": "uint256"
				}
			],
			"stateMutability": "view",
			"type": "function"
		},
		{
			"inputs": [],
			"name": "MAX_SUPPLY",
			"outputs": [
				{
					"internalType": "uint256",
					"name": "",
					"type": "uint256"
				}
			],
			"stateMutability": "view",
			"type": "function"
		},
		{
			"inputs": [],
			"name": "PRICE",
			"outputs": [
				{
					"internalType": "uint256",
					"name": "",
					"type": "uint256"
				}
			],
			"stateMutability": "view",
			"type": "function"
		},
		{
			"inputs": [
				{
					"internalType": "address",
					"name": "to",
					"type": "address"
				},
				{
					"internalType": "uint256",
					"name": "tokenId",
					"type": "uint256"
				}
			],
			"name": "approve",
			"outputs": [],
			"stateMutability": "nonpayable",
			"type": "function"
		},
		{
			"inputs": [
				{
					"internalType": "address",
					"name": "owner",
					"type": "address"
				}
			],
			"name": "balanceOf",
			"outputs": [
				{
					"internalType": "uint256",
					"name": "",
					"type": "uint256"
				}
			],
			"stateMutability": "view",
			"type": "function"
		},
		{
			"inputs": [],
			"name": "baseTokenURI",
			"outputs": [
				{
					"internalType": "string",
					"name": "",
					"type": "string"
				}
			],
			"stateMutability": "view",
			"type": "function"
		},
		{
			"inputs": [
				{
					"internalType": "uint256",
					"name": "tokenId",
					"type": "uint256"
				}
			],
			"name": "getApproved",
			"outputs": [
				{
					"internalType": "address",
					"name": "",
					"type": "address"
				}
			],
			"stateMutability": "view",
			"type": "function"
		},
		{
			"inputs": [
				{
					"internalType": "address",
					"name": "owner",
					"type": "address"
				},
				{
					"internalType": "address",
					"name": "operator",
					"type": "address"
				}
			],
			"name": "isApprovedForAll",
			"outputs": [
				{
					"internalType": "bool",
					"name": "",
					"type": "bool"
				}
			],
			"stateMutability": "view",
			"type": "function"
		},
		{
			"inputs": [
				{
					"internalType": "uint256",
					"name": "_count",
					"type": "uint256"
				}
			],
			"name": "mintNFTs",
			"outputs": [],
			"stateMutability": "payable",
			"type": "function"
		},
		{
			"inputs": [],
			"name": "name",
			"outputs": [
				{
					"internalType": "string",
					"name": "",
					"type": "string"
				}
			],
			"stateMutability": "view",
			"type": "function"
		},
		{
			"inputs": [],
			"name": "owner",
			"outputs": [
				{
					"internalType": "address",
					"name": "",
					"type": "address"
				}
			],
			"stateMutability": "view",
			"type": "function"
		},
		{
			"inputs": [
				{
					"internalType": "uint256",
					"name": "tokenId",
					"type": "uint256"
				}
			],
			"name": "ownerOf",
			"outputs": [
				{
					"internalType": "address",
					"name": "",
					"type": "address"
				}
			],
			"stateMutability": "view",
			"type": "function"
		},
		{
			"inputs": [],
			"name": "renounceOwnership",
			"outputs": [],
			"stateMutability": "nonpayable",
			"type": "function"
		},
		{
			"inputs": [
				{
					"internalType": "address",
					"name": "from",
					"type": "address"
				},
				{
					"internalType": "address",
					"name": "to",
					"type": "address"
				},
				{
					"internalType": "uint256",
					"name": "tokenId",
					"type": "uint256"
				}
			],
			"name": "safeTransferFrom",
			"outputs": [],
			"stateMutability": "nonpayable",
			"type": "function"
		},
		{
			"inputs": [
				{
					"internalType": "address",
					"name": "from",
					"type": "address"
				},
				{
					"internalType": "address",
					"name": "to",
					"type": "address"
				},
				{
					"internalType": "uint256",
					"name": "tokenId",
					"type": "uint256"
				},
				{
					"internalType": "bytes",
					"name": "data",
					"type": "bytes"
				}
			],
			"name": "safeTransferFrom",
			"outputs": [],
			"stateMutability": "nonpayable",
			"type": "function"
		},
		{
			"inputs": [
				{
					"internalType": "address",
					"name": "operator",
					"type": "address"
				},
				{
					"internalType": "bool",
					"name": "approved",
					"type": "bool"
				}
			],
			"name": "setApprovalForAll",
			"outputs": [],
			"stateMutability": "nonpayable",
			"type": "function"
		},
		{
			"inputs": [
				{
					"internalType": "string",
					"name": "_baseTokenURI",
					"type": "string"
				}
			],
			"name": "setBaseURI",
			"outputs": [],
			"stateMutability": "nonpayable",
			"type": "function"
		},
		{
			"inputs": [
				{
					"internalType": "bytes4",
					"name": "interfaceId",
					"type": "bytes4"
				}
			],
			"name": "supportsInterface",
			"outputs": [
				{
					"internalType": "bool",
					"name": "",
					"type": "bool"
				}
			],
			"stateMutability": "view",
			"type": "function"
		},
		{
			"inputs": [],
			"name": "symbol",
			"outputs": [
				{
					"internalType": "string",
					"name": "",
					"type": "string"
				}
			],
			"stateMutability": "view",
			"type": "function"
		},
		{
			"inputs": [
				{
					"internalType": "uint256",
					"name": "index",
					"type": "uint256"
				}
			],
			"name": "tokenByIndex",
			"outputs": [
				{
					"internalType": "uint256",
					"name": "",
					"type": "uint256"
				}
			],
			"stateMutability": "view",
			"type": "function"
		},
		{
			"inputs": [
				{
					"internalType": "address",
					"name": "owner",
					"type": "address"
				},
				{
					"internalType": "uint256",
					"name": "index",
					"type": "uint256"
				}
			],
			"name": "tokenOfOwnerByIndex",
			"outputs": [
				{
					"internalType": "uint256",
					"name": "",
					"type": "uint256"
				}
			],
			"stateMutability": "view",
			"type": "function"
		},
		{
			"inputs": [
				{
					"internalType": "uint256",
					"name": "tokenId",
					"type": "uint256"
				}
			],
			"name": "tokenURI",
			"outputs": [
				{
					"internalType": "string",
					"name": "",
					"type": "string"
				}
			],
			"stateMutability": "view",
			"type": "function"
		},
		{
			"inputs": [],
			"name": "totalSupply",
			"outputs": [
				{
					"internalType": "uint256",
					"name": "",
					"type": "uint256"
				}
			],
			"stateMutability": "view",
			"type": "function"
		},
		{
			"inputs": [
				{
					"internalType": "address",
					"name": "from",
					"type": "address"
				},
				{
					"internalType": "address",
					"name": "to",
					"type": "address"
				},
				{
					"internalType": "uint256",
					"name": "tokenId",
					"type": "uint256"
				}
			],
			"name": "transferFrom",
			"outputs": [],
			"stateMutability": "nonpayable",
			"type": "function"
		},
		{
			"inputs": [
				{
					"internalType": "address",
					"name": "newOwner",
					"type": "address"
				}
			],
			"name": "transferOwnership",
			"outputs": [],
			"stateMutability": "nonpayable",
			"type": "function"
		},
		{
			"inputs": [],
			"name": "withdraw",
			"outputs": [],
			"stateMutability": "payable",
			"type": "function"
		}
	],
	"bytecode": "0x60806040523480156200001157600080fd5b506040516200431a3803806200431a833981810160405281019062000037919062000511565b6040518060400160405280601481526020017f536176655f5468655f456e7669726f6e6d656e740000000000000000000000008152506040518060400160405280600781526020017f536176654e4654000000000000000000000000000000000000000000000000008152508160009080519060200190620000bb929190620002c4565b508060019080519060200190620000d4929190620002c4565b505050620000f7620000eb6200010f60201b60201c565b6200011760201b60201c565b6200010881620001dd60201b60201c565b506200064a565b600033905090565b6000600a60009054906101000a900473ffffffffffffffffffffffffffffffffffffffff16905081600a60006101000a81548173ffffffffffffffffffffffffffffffffffffffff021916908373ffffffffffffffffffffffffffffffffffffffff1602179055508173ffffffffffffffffffffffffffffffffffffffff168173ffffffffffffffffffffffffffffffffffffffff167f8be0079c531659141344cd1fd0a4f28419497f9722a3daafe3b4186f6b6457e060405160405180910390a35050565b620001ed6200020960201b60201c565b80600c908051906020019062000205929190620002c4565b5050565b620002196200010f60201b60201c565b73ffffffffffffffffffffffffffffffffffffffff166200023f6200029a60201b60201c565b73ffffffffffffffffffffffffffffffffffffffff161462000298576040517f08c379a00000000000000000000000000000000000000000000000000000000081526004016200028f90620005c3565b60405180910390fd5b565b6000600a60009054906101000a900473ffffffffffffffffffffffffffffffffffffffff16905090565b828054620002d29062000614565b90600052602060002090601f016020900481019282620002f6576000855562000342565b82601f106200031157805160ff191683800117855562000342565b8280016001018555821562000342579182015b828111156200034157825182559160200191906001019062000324565b5b50905062000351919062000355565b5090565b5b808211156200037057600081600090555060010162000356565b5090565b6000604051905090565b600080fd5b600080fd5b600080fd5b600080fd5b6000601f19601f8301169050919050565b7f4e487b7100000000000000000000000000000000000000000000000000000000600052604160045260246000fd5b620003dd8262000392565b810181811067ffffffffffffffff82111715620003ff57620003fe620003a3565b5b80604052505050565b60006200041462000374565b9050620004228282620003d2565b919050565b600067ffffffffffffffff821115620004455762000444620003a3565b5b620004508262000392565b9050602081019050919050565b60005b838110156200047d57808201518184015260208101905062000460565b838111156200048d576000848401525b50505050565b6000620004aa620004a48462000427565b62000408565b905082815260208101848484011115620004c957620004c86200038d565b5b620004d68482856200045d565b509392505050565b600082601f830112620004f657620004f562000388565b5b81516200050884826020860162000493565b91505092915050565b6000602082840312156200052a57620005296200037e565b5b600082015167ffffffffffffffff8111156200054b576200054a62000383565b5b6200055984828501620004de565b91505092915050565b600082825260208201905092915050565b7f4f776e61626c653a2063616c6c6572206973206e6f7420746865206f776e6572600082015250565b6000620005ab60208362000562565b9150620005b88262000573565b602082019050919050565b60006020820190508181036000830152620005de816200059c565b9050919050565b7f4e487b7100000000000000000000000000000000000000000000000000000000600052602260045260246000fd5b600060028204905060018216806200062d57607f821691505b60208210811415620006445762000643620005e5565b5b50919050565b613cc0806200065a6000396000f3fe6080604052600436106101815760003560e01c806355f804b3116100d157806395d89b411161008a578063c87b56dd11610064578063c87b56dd14610554578063d547cfb714610591578063e985e9c5146105bc578063f2fde38b146105f957610181565b806395d89b41146104d7578063a22cb46514610502578063b88d4fde1461052b57610181565b806355f804b3146103c75780636352211e146103f057806370a082311461042d578063715018a61461046a5780638d859f3e146104815780638da5cb5b146104ac57610181565b806323b872dd1161013e5780633b4b1381116101185780633b4b13811461033b5780633ccfd60b1461035757806342842e0e146103615780634f6ccce71461038a57610181565b806323b872dd146102aa5780632f745c59146102d357806332cb6b0c1461031057610181565b806301ffc9a71461018657806306fdde03146101c3578063081812fc146101ee578063095ea7b31461022b57806309d42b301461025457806318160ddd1461027f575b600080fd5b34801561019257600080fd5b506101ad60048036038101906101a891906127ac565b610622565b6040516101ba91906127f4565b60405180910390f35b3480156101cf57600080fd5b506101d861069c565b6040516101e591906128a8565b60405180910390f35b3480156101fa57600080fd5b5061021560048036038101906102109190612900565b61072e565b604051610222919061296e565b60405180910390f35b34801561023757600080fd5b50610252600480360381019061024d91906129b5565b610774565b005b34801561026057600080fd5b5061026961088c565b6040516102769190612a04565b60405180910390f35b34801561028b57600080fd5b50610294610891565b6040516102a19190612a04565b60405180910390f35b3480156102b657600080fd5b506102d160048036038101906102cc9190612a1f565b61089e565b005b3480156102df57600080fd5b506102fa60048036038101906102f591906129b5565b6108fe565b6040516103079190612a04565b60405180910390f35b34801561031c57600080fd5b506103256109a3565b6040516103329190612a04565b60405180910390f35b61035560048036038101906103509190612900565b6109a8565b005b61035f610ae3565b005b34801561036d57600080fd5b5061038860048036038101906103839190612a1f565b610be3565b005b34801561039657600080fd5b506103b160048036038101906103ac9190612900565b610c03565b6040516103be9190612a04565b60405180910390f35b3480156103d357600080fd5b506103ee60048036038101906103e99190612ba7565b610c74565b005b3480156103fc57600080fd5b5061041760048036038101906104129190612900565b610c96565b604051610424919061296e565b60405180910390f35b34801561043957600080fd5b50610454600480360381019061044f9190612bf0565b610d1d565b6040516104619190612a04565b60405180910390f35b34801561047657600080fd5b5061047f610dd5565b005b34801561048d57600080fd5b50610496610de9565b6040516104a39190612a04565b60405180910390f35b3480156104b857600080fd5b506104c1610df4565b6040516104ce919061296e565b60405180910390f35b3480156104e357600080fd5b506104ec610e1e565b6040516104f991906128a8565b60405180910390f35b34801561050e57600080fd5b5061052960048036038101906105249190612c49565b610eb0565b005b34801561053757600080fd5b50610552600480360381019061054d9190612d2a565b610ec6565b005b34801561056057600080fd5b5061057b60048036038101906105769190612900565b610f28565b60405161058891906128a8565b60405180910390f35b34801561059d57600080fd5b506105a6610f90565b6040516105b391906128a8565b60405180910390f35b3480156105c857600080fd5b506105e360048036038101906105de9190612dad565b61101e565b6040516105f091906127f4565b60405180910390f35b34801561060557600080fd5b50610620600480360381019061061b9190612bf0565b6110b2565b005b60007f780e9d63000000000000000000000000000000000000000000000000000000007bffffffffffffffffffffffffffffffffffffffffffffffffffffffff1916827bffffffffffffffffffffffffffffffffffffffffffffffffffffffff19161480610695575061069482611136565b5b9050919050565b6060600080546106ab90612e1c565b80601f01602080910402602001604051908101604052809291908181526020018280546106d790612e1c565b80156107245780601f106106f957610100808354040283529160200191610724565b820191906000526020600020905b81548152906001019060200180831161070757829003601f168201915b5050505050905090565b600061073982611218565b6004600083815260200190815260200160002060009054906101000a900473ffffffffffffffffffffffffffffffffffffffff169050919050565b600061077f82610c96565b90508073ffffffffffffffffffffffffffffffffffffffff168373ffffffffffffffffffffffffffffffffffffffff1614156107f0576040517f08c379a00000000000000000000000000000000000000000000000000000000081526004016107e790612ec0565b60405180910390fd5b8073ffffffffffffffffffffffffffffffffffffffff1661080f611263565b73ffffffffffffffffffffffffffffffffffffffff16148061083e575061083d81610838611263565b61101e565b5b61087d576040517f08c379a000000000000000000000000000000000000000000000000000000000815260040161087490612f52565b60405180910390fd5b610887838361126b565b505050565b600281565b6000600880549050905090565b6108af6108a9611263565b82611324565b6108ee576040517f08c379a00000000000000000000000000000000000000000000000000000000081526004016108e590612fe4565b60405180910390fd5b6108f98383836113b9565b505050565b600061090983610d1d565b821061094a576040517f08c379a000000000000000000000000000000000000000000000000000000000815260040161094190613076565b60405180910390fd5b600660008473ffffffffffffffffffffffffffffffffffffffff1673ffffffffffffffffffffffffffffffffffffffff168152602001908152602001600020600083815260200190815260200160002054905092915050565b600a81565b60006109b4600b6116b3565b9050600a6109cb83836116c190919063ffffffff16565b1115610a0c576040517f08c379a0000000000000000000000000000000000000000000000000000000008152600401610a03906130e2565b60405180910390fd5b600082118015610a1d575060028211155b610a5c576040517f08c379a0000000000000000000000000000000000000000000000000000000008152600401610a5390613174565b60405180910390fd5b610a768266b1a2bc2ec500006116d790919063ffffffff16565b341015610ab8576040517f08c379a0000000000000000000000000000000000000000000000000000000008152600401610aaf90613206565b60405180910390fd5b60005b82811015610ade57610acb6116ed565b8080610ad690613255565b915050610abb565b505050565b610aeb611712565b600047905060008111610b33576040517f08c379a0000000000000000000000000000000000000000000000000000000008152600401610b2a906132ea565b60405180910390fd5b60003373ffffffffffffffffffffffffffffffffffffffff1682604051610b599061333b565b60006040518083038185875af1925050503d8060008114610b96576040519150601f19603f3d011682016040523d82523d6000602084013e610b9b565b606091505b5050905080610bdf576040517f08c379a0000000000000000000000000000000000000000000000000000000008152600401610bd69061339c565b60405180910390fd5b5050565b610bfe83838360405180602001604052806000815250610ec6565b505050565b6000610c0d610891565b8210610c4e576040517f08c379a0000000000000000000000000000000000000000000000000000000008152600401610c459061342e565b60405180910390fd5b60088281548110610c6257610c6161344e565b5b90600052602060002001549050919050565b610c7c611712565b80600c9080519060200190610c9292919061269d565b5050565b600080610ca283611790565b9050600073ffffffffffffffffffffffffffffffffffffffff168173ffffffffffffffffffffffffffffffffffffffff161415610d14576040517f08c379a0000000000000000000000000000000000000000000000000000000008152600401610d0b906134c9565b60405180910390fd5b80915050919050565b60008073ffffffffffffffffffffffffffffffffffffffff168273ffffffffffffffffffffffffffffffffffffffff161415610d8e576040517f08c379a0000000000000000000000000000000000000000000000000000000008152600401610d859061355b565b60405180910390fd5b600360008373ffffffffffffffffffffffffffffffffffffffff1673ffffffffffffffffffffffffffffffffffffffff168152602001908152602001600020549050919050565b610ddd611712565b610de760006117cd565b565b66b1a2bc2ec5000081565b6000600a60009054906101000a900473ffffffffffffffffffffffffffffffffffffffff16905090565b606060018054610e2d90612e1c565b80601f0160208091040260200160405190810160405280929190818152602001828054610e5990612e1c565b8015610ea65780601f10610e7b57610100808354040283529160200191610ea6565b820191906000526020600020905b815481529060010190602001808311610e8957829003601f168201915b5050505050905090565b610ec2610ebb611263565b8383611893565b5050565b610ed7610ed1611263565b83611324565b610f16576040517f08c379a0000000000000000000000000000000000000000000000000000000008152600401610f0d90612fe4565b60405180910390fd5b610f2284848484611a00565b50505050565b6060610f3382611218565b6000610f3d611a5c565b90506000815111610f5d5760405180602001604052806000815250610f88565b80610f6784611aee565b604051602001610f789291906135b7565b6040516020818303038152906040525b915050919050565b600c8054610f9d90612e1c565b80601f0160208091040260200160405190810160405280929190818152602001828054610fc990612e1c565b80156110165780601f10610feb57610100808354040283529160200191611016565b820191906000526020600020905b815481529060010190602001808311610ff957829003601f168201915b505050505081565b6000600560008473ffffffffffffffffffffffffffffffffffffffff1673ffffffffffffffffffffffffffffffffffffffff16815260200190815260200160002060008373ffffffffffffffffffffffffffffffffffffffff1673ffffffffffffffffffffffffffffffffffffffff16815260200190815260200160002060009054906101000a900460ff16905092915050565b6110ba611712565b600073ffffffffffffffffffffffffffffffffffffffff168173ffffffffffffffffffffffffffffffffffffffff16141561112a576040517f08c379a00000000000000000000000000000000000000000000000000000000081526004016111219061364d565b60405180910390fd5b611133816117cd565b50565b60007f80ac58cd000000000000000000000000000000000000000000000000000000007bffffffffffffffffffffffffffffffffffffffffffffffffffffffff1916827bffffffffffffffffffffffffffffffffffffffffffffffffffffffff1916148061120157507f5b5e139f000000000000000000000000000000000000000000000000000000007bffffffffffffffffffffffffffffffffffffffffffffffffffffffff1916827bffffffffffffffffffffffffffffffffffffffffffffffffffffffff1916145b80611211575061121082611bc6565b5b9050919050565b61122181611c30565b611260576040517f08c379a0000000000000000000000000000000000000000000000000000000008152600401611257906134c9565b60405180910390fd5b50565b600033905090565b816004600083815260200190815260200160002060006101000a81548173ffffffffffffffffffffffffffffffffffffffff021916908373ffffffffffffffffffffffffffffffffffffffff160217905550808273ffffffffffffffffffffffffffffffffffffffff166112de83610c96565b73ffffffffffffffffffffffffffffffffffffffff167f8c5be1e5ebec7d5bd14f71427d1e84f3dd0314c0f7b2291e5b200ac8c7c3b92560405160405180910390a45050565b60008061133083610c96565b90508073ffffffffffffffffffffffffffffffffffffffff168473ffffffffffffffffffffffffffffffffffffffff1614806113725750611371818561101e565b5b806113b057508373ffffffffffffffffffffffffffffffffffffffff166113988461072e565b73ffffffffffffffffffffffffffffffffffffffff16145b91505092915050565b8273ffffffffffffffffffffffffffffffffffffffff166113d982610c96565b73ffffffffffffffffffffffffffffffffffffffff161461142f576040517f08c379a0000000000000000000000000000000000000000000000000000000008152600401611426906136df565b60405180910390fd5b600073ffffffffffffffffffffffffffffffffffffffff168273ffffffffffffffffffffffffffffffffffffffff16141561149f576040517f08c379a000000000000000000000000000000000000000000000000000000000815260040161149690613771565b60405180910390fd5b6114ac8383836001611c71565b8273ffffffffffffffffffffffffffffffffffffffff166114cc82610c96565b73ffffffffffffffffffffffffffffffffffffffff1614611522576040517f08c379a0000000000000000000000000000000000000000000000000000000008152600401611519906136df565b60405180910390fd5b6004600082815260200190815260200160002060006101000a81549073ffffffffffffffffffffffffffffffffffffffff02191690556001600360008573ffffffffffffffffffffffffffffffffffffffff1673ffffffffffffffffffffffffffffffffffffffff168152602001908152602001600020600082825403925050819055506001600360008473ffffffffffffffffffffffffffffffffffffffff1673ffffffffffffffffffffffffffffffffffffffff16815260200190815260200160002060008282540192505081905550816002600083815260200190815260200160002060006101000a81548173ffffffffffffffffffffffffffffffffffffffff021916908373ffffffffffffffffffffffffffffffffffffffff160217905550808273ffffffffffffffffffffffffffffffffffffffff168473ffffffffffffffffffffffffffffffffffffffff167fddf252ad1be2c89b69c2b068fc378daa952ba7f163c4a11628f55a4df523b3ef60405160405180910390a46116ae8383836001611dd1565b505050565b600081600001549050919050565b600081836116cf9190613791565b905092915050565b600081836116e591906137e7565b905092915050565b60006116f9600b6116b3565b90506117053382611dd7565b61170f600b611df5565b50565b61171a611263565b73ffffffffffffffffffffffffffffffffffffffff16611738610df4565b73ffffffffffffffffffffffffffffffffffffffff161461178e576040517f08c379a00000000000000000000000000000000000000000000000000000000081526004016117859061388d565b60405180910390fd5b565b60006002600083815260200190815260200160002060009054906101000a900473ffffffffffffffffffffffffffffffffffffffff169050919050565b6000600a60009054906101000a900473ffffffffffffffffffffffffffffffffffffffff16905081600a60006101000a81548173ffffffffffffffffffffffffffffffffffffffff021916908373ffffffffffffffffffffffffffffffffffffffff1602179055508173ffffffffffffffffffffffffffffffffffffffff168173ffffffffffffffffffffffffffffffffffffffff167f8be0079c531659141344cd1fd0a4f28419497f9722a3daafe3b4186f6b6457e060405160405180910390a35050565b8173ffffffffffffffffffffffffffffffffffffffff168373ffffffffffffffffffffffffffffffffffffffff161415611902576040517f08c379a00000000000000000000000000000000000000000000000000000000081526004016118f9906138f9565b60405180910390fd5b80600560008573ffffffffffffffffffffffffffffffffffffffff1673ffffffffffffffffffffffffffffffffffffffff16815260200190815260200160002060008473ffffffffffffffffffffffffffffffffffffffff1673ffffffffffffffffffffffffffffffffffffffff16815260200190815260200160002060006101000a81548160ff0219169083151502179055508173ffffffffffffffffffffffffffffffffffffffff168373ffffffffffffffffffffffffffffffffffffffff167f17307eab39ab6107e8899845ad3d59bd9653f200f220920489ca2b5937696c31836040516119f391906127f4565b60405180910390a3505050565b611a0b8484846113b9565b611a1784848484611e0b565b611a56576040517f08c379a0000000000000000000000000000000000000000000000000000000008152600401611a4d9061398b565b60405180910390fd5b50505050565b6060600c8054611a6b90612e1c565b80601f0160208091040260200160405190810160405280929190818152602001828054611a9790612e1c565b8015611ae45780601f10611ab957610100808354040283529160200191611ae4565b820191906000526020600020905b815481529060010190602001808311611ac757829003601f168201915b5050505050905090565b606060006001611afd84611fa2565b01905060008167ffffffffffffffff811115611b1c57611b1b612a7c565b5b6040519080825280601f01601f191660200182016040528015611b4e5781602001600182028036833780820191505090505b509050600082602001820190505b600115611bbb578080600190039150507f3031323334353637383961626364656600000000000000000000000000000000600a86061a8153600a8581611ba557611ba46139ab565b5b0494506000851415611bb657611bbb565b611b5c565b819350505050919050565b60007f01ffc9a7000000000000000000000000000000000000000000000000000000007bffffffffffffffffffffffffffffffffffffffffffffffffffffffff1916827bffffffffffffffffffffffffffffffffffffffffffffffffffffffff1916149050919050565b60008073ffffffffffffffffffffffffffffffffffffffff16611c5283611790565b73ffffffffffffffffffffffffffffffffffffffff1614159050919050565b611c7d848484846120f5565b6001811115611cc1576040517f08c379a0000000000000000000000000000000000000000000000000000000008152600401611cb890613a4c565b60405180910390fd5b6000829050600073ffffffffffffffffffffffffffffffffffffffff168573ffffffffffffffffffffffffffffffffffffffff161415611d0957611d04816120fb565b611d48565b8373ffffffffffffffffffffffffffffffffffffffff168573ffffffffffffffffffffffffffffffffffffffff1614611d4757611d468582612144565b5b5b600073ffffffffffffffffffffffffffffffffffffffff168473ffffffffffffffffffffffffffffffffffffffff161415611d8b57611d86816122b1565b611dca565b8473ffffffffffffffffffffffffffffffffffffffff168473ffffffffffffffffffffffffffffffffffffffff1614611dc957611dc88482612382565b5b5b5050505050565b50505050565b611df1828260405180602001604052806000815250612401565b5050565b6001816000016000828254019250508190555050565b6000611e2c8473ffffffffffffffffffffffffffffffffffffffff1661245c565b15611f95578373ffffffffffffffffffffffffffffffffffffffff1663150b7a02611e55611263565b8786866040518563ffffffff1660e01b8152600401611e779493929190613ac1565b602060405180830381600087803b158015611e9157600080fd5b505af1925050508015611ec257506040513d601f19601f82011682018060405250810190611ebf9190613b22565b60015b611f45573d8060008114611ef2576040519150601f19603f3d011682016040523d82523d6000602084013e611ef7565b606091505b50600081511415611f3d576040517f08c379a0000000000000000000000000000000000000000000000000000000008152600401611f349061398b565b60405180910390fd5b805181602001fd5b63150b7a0260e01b7bffffffffffffffffffffffffffffffffffffffffffffffffffffffff1916817bffffffffffffffffffffffffffffffffffffffffffffffffffffffff191614915050611f9a565b600190505b949350505050565b600080600090507a184f03e93ff9f4daa797ed6e38ed64bf6a1f0100000000000000008310612000577a184f03e93ff9f4daa797ed6e38ed64bf6a1f0100000000000000008381611ff657611ff56139ab565b5b0492506040810190505b6d04ee2d6d415b85acef8100000000831061203d576d04ee2d6d415b85acef81000000008381612033576120326139ab565b5b0492506020810190505b662386f26fc10000831061206c57662386f26fc100008381612062576120616139ab565b5b0492506010810190505b6305f5e1008310612095576305f5e100838161208b5761208a6139ab565b5b0492506008810190505b61271083106120ba5761271083816120b0576120af6139ab565b5b0492506004810190505b606483106120dd57606483816120d3576120d26139ab565b5b0492506002810190505b600a83106120ec576001810190505b80915050919050565b50505050565b6008805490506009600083815260200190815260200160002081905550600881908060018154018082558091505060019003906000526020600020016000909190919091505550565b6000600161215184610d1d565b61215b9190613b4f565b9050600060076000848152602001908152602001600020549050818114612240576000600660008673ffffffffffffffffffffffffffffffffffffffff1673ffffffffffffffffffffffffffffffffffffffff168152602001908152602001600020600084815260200190815260200160002054905080600660008773ffffffffffffffffffffffffffffffffffffffff1673ffffffffffffffffffffffffffffffffffffffff168152602001908152602001600020600084815260200190815260200160002081905550816007600083815260200190815260200160002081905550505b6007600084815260200190815260200160002060009055600660008573ffffffffffffffffffffffffffffffffffffffff1673ffffffffffffffffffffffffffffffffffffffff16815260200190815260200160002060008381526020019081526020016000206000905550505050565b600060016008805490506122c59190613b4f565b90506000600960008481526020019081526020016000205490506000600883815481106122f5576122f461344e565b5b9060005260206000200154905080600883815481106123175761231661344e565b5b90600052602060002001819055508160096000838152602001908152602001600020819055506009600085815260200190815260200160002060009055600880548061236657612365613b83565b5b6001900381819060005260206000200160009055905550505050565b600061238d83610d1d565b905081600660008573ffffffffffffffffffffffffffffffffffffffff1673ffffffffffffffffffffffffffffffffffffffff168152602001908152602001600020600083815260200190815260200160002081905550806007600084815260200190815260200160002081905550505050565b61240b838361247f565b6124186000848484611e0b565b612457576040517f08c379a000000000000000000000000000000000000000000000000000000000815260040161244e9061398b565b60405180910390fd5b505050565b6000808273ffffffffffffffffffffffffffffffffffffffff163b119050919050565b600073ffffffffffffffffffffffffffffffffffffffff168273ffffffffffffffffffffffffffffffffffffffff1614156124ef576040517f08c379a00000000000000000000000000000000000000000000000000000000081526004016124e690613bfe565b60405180910390fd5b6124f881611c30565b15612538576040517f08c379a000000000000000000000000000000000000000000000000000000000815260040161252f90613c6a565b60405180910390fd5b612546600083836001611c71565b61254f81611c30565b1561258f576040517f08c379a000000000000000000000000000000000000000000000000000000000815260040161258690613c6a565b60405180910390fd5b6001600360008473ffffffffffffffffffffffffffffffffffffffff1673ffffffffffffffffffffffffffffffffffffffff16815260200190815260200160002060008282540192505081905550816002600083815260200190815260200160002060006101000a81548173ffffffffffffffffffffffffffffffffffffffff021916908373ffffffffffffffffffffffffffffffffffffffff160217905550808273ffffffffffffffffffffffffffffffffffffffff16600073ffffffffffffffffffffffffffffffffffffffff167fddf252ad1be2c89b69c2b068fc378daa952ba7f163c4a11628f55a4df523b3ef60405160405180910390a4612699600083836001611dd1565b5050565b8280546126a990612e1c565b90600052602060002090601f0160209004810192826126cb5760008555612712565b82601f106126e457805160ff1916838001178555612712565b82800160010185558215612712579182015b828111156127115782518255916020019190600101906126f6565b5b50905061271f9190612723565b5090565b5b8082111561273c576000816000905550600101612724565b5090565b6000604051905090565b600080fd5b600080fd5b60007fffffffff0000000000000000000000000000000000000000000000000000000082169050919050565b61278981612754565b811461279457600080fd5b50565b6000813590506127a681612780565b92915050565b6000602082840312156127c2576127c161274a565b5b60006127d084828501612797565b91505092915050565b60008115159050919050565b6127ee816127d9565b82525050565b600060208201905061280960008301846127e5565b92915050565b600081519050919050565b600082825260208201905092915050565b60005b8381101561284957808201518184015260208101905061282e565b83811115612858576000848401525b50505050565b6000601f19601f8301169050919050565b600061287a8261280f565b612884818561281a565b935061289481856020860161282b565b61289d8161285e565b840191505092915050565b600060208201905081810360008301526128c2818461286f565b905092915050565b6000819050919050565b6128dd816128ca565b81146128e857600080fd5b50565b6000813590506128fa816128d4565b92915050565b6000602082840312156129165761291561274a565b5b6000612924848285016128eb565b91505092915050565b600073ffffffffffffffffffffffffffffffffffffffff82169050919050565b60006129588261292d565b9050919050565b6129688161294d565b82525050565b6000602082019050612983600083018461295f565b92915050565b6129928161294d565b811461299d57600080fd5b50565b6000813590506129af81612989565b92915050565b600080604083850312156129cc576129cb61274a565b5b60006129da858286016129a0565b92505060206129eb858286016128eb565b9150509250929050565b6129fe816128ca565b82525050565b6000602082019050612a1960008301846129f5565b92915050565b600080600060608486031215612a3857612a3761274a565b5b6000612a46868287016129a0565b9350506020612a57868287016129a0565b9250506040612a68868287016128eb565b9150509250925092565b600080fd5b600080fd5b7f4e487b7100000000000000000000000000000000000000000000000000000000600052604160045260246000fd5b612ab48261285e565b810181811067ffffffffffffffff82111715612ad357612ad2612a7c565b5b80604052505050565b6000612ae6612740565b9050612af28282612aab565b919050565b600067ffffffffffffffff821115612b1257612b11612a7c565b5b612b1b8261285e565b9050602081019050919050565b82818337600083830152505050565b6000612b4a612b4584612af7565b612adc565b905082815260208101848484011115612b6657612b65612a77565b5b612b71848285612b28565b509392505050565b600082601f830112612b8e57612b8d612a72565b5b8135612b9e848260208601612b37565b91505092915050565b600060208284031215612bbd57612bbc61274a565b5b600082013567ffffffffffffffff811115612bdb57612bda61274f565b5b612be784828501612b79565b91505092915050565b600060208284031215612c0657612c0561274a565b5b6000612c14848285016129a0565b91505092915050565b612c26816127d9565b8114612c3157600080fd5b50565b600081359050612c4381612c1d565b92915050565b60008060408385031215612c6057612c5f61274a565b5b6000612c6e858286016129a0565b9250506020612c7f85828601612c34565b9150509250929050565b600067ffffffffffffffff821115612ca457612ca3612a7c565b5b612cad8261285e565b9050602081019050919050565b6000612ccd612cc884612c89565b612adc565b905082815260208101848484011115612ce957612ce8612a77565b5b612cf4848285612b28565b509392505050565b600082601f830112612d1157612d10612a72565b5b8135612d21848260208601612cba565b91505092915050565b60008060008060808587031215612d4457612d4361274a565b5b6000612d52878288016129a0565b9450506020612d63878288016129a0565b9350506040612d74878288016128eb565b925050606085013567ffffffffffffffff811115612d9557612d9461274f565b5b612da187828801612cfc565b91505092959194509250565b60008060408385031215612dc457612dc361274a565b5b6000612dd2858286016129a0565b9250506020612de3858286016129a0565b9150509250929050565b7f4e487b7100000000000000000000000000000000000000000000000000000000600052602260045260246000fd5b60006002820490506001821680612e3457607f821691505b60208210811415612e4857612e47612ded565b5b50919050565b7f4552433732313a20617070726f76616c20746f2063757272656e74206f776e6560008201527f7200000000000000000000000000000000000000000000000000000000000000602082015250565b6000612eaa60218361281a565b9150612eb582612e4e565b604082019050919050565b60006020820190508181036000830152612ed981612e9d565b9050919050565b7f4552433732313a20617070726f76652063616c6c6572206973206e6f7420746f60008201527f6b656e206f776e6572206f7220617070726f76656420666f7220616c6c000000602082015250565b6000612f3c603d8361281a565b9150612f4782612ee0565b604082019050919050565b60006020820190508181036000830152612f6b81612f2f565b9050919050565b7f4552433732313a2063616c6c6572206973206e6f7420746f6b656e206f776e6560008201527f72206f7220617070726f76656400000000000000000000000000000000000000602082015250565b6000612fce602d8361281a565b9150612fd982612f72565b604082019050919050565b60006020820190508181036000830152612ffd81612fc1565b9050919050565b7f455243373231456e756d657261626c653a206f776e657220696e646578206f7560008201527f74206f6620626f756e6473000000000000000000000000000000000000000000602082015250565b6000613060602b8361281a565b915061306b82613004565b604082019050919050565b6000602082019050818103600083015261308f81613053565b9050919050565b7f4e6f7420656e6f756768204e465473206c656674210000000000000000000000600082015250565b60006130cc60158361281a565b91506130d782613096565b602082019050919050565b600060208201905081810360008301526130fb816130bf565b9050919050565b7f43616e6e6f74206d696e7420737065636966696564206e756d626572206f662060008201527f4e4654732e000000000000000000000000000000000000000000000000000000602082015250565b600061315e60258361281a565b915061316982613102565b604082019050919050565b6000602082019050818103600083015261318d81613151565b9050919050565b7f4e6f7420656e6f75676820657468657220746f207075726368617365204e465460008201527f732e000000000000000000000000000000000000000000000000000000000000602082015250565b60006131f060228361281a565b91506131fb82613194565b604082019050919050565b6000602082019050818103600083015261321f816131e3565b9050919050565b7f4e487b7100000000000000000000000000000000000000000000000000000000600052601160045260246000fd5b6000613260826128ca565b91507fffffffffffffffffffffffffffffffffffffffffffffffffffffffffffffffff82141561329357613292613226565b5b600182019050919050565b7f4e6f206574686572206c65667420746f20776974686472617700000000000000600082015250565b60006132d460198361281a565b91506132df8261329e565b602082019050919050565b60006020820190508181036000830152613303816132c7565b9050919050565b600081905092915050565b50565b600061332560008361330a565b915061333082613315565b600082019050919050565b600061334682613318565b9150819050919050565b7f5472616e73666572206661696c65642e00000000000000000000000000000000600082015250565b600061338660108361281a565b915061339182613350565b602082019050919050565b600060208201905081810360008301526133b581613379565b9050919050565b7f455243373231456e756d657261626c653a20676c6f62616c20696e646578206f60008201527f7574206f6620626f756e64730000000000000000000000000000000000000000602082015250565b6000613418602c8361281a565b9150613423826133bc565b604082019050919050565b600060208201905081810360008301526134478161340b565b9050919050565b7f4e487b7100000000000000000000000000000000000000000000000000000000600052603260045260246000fd5b7f4552433732313a20696e76616c696420746f6b656e2049440000000000000000600082015250565b60006134b360188361281a565b91506134be8261347d565b602082019050919050565b600060208201905081810360008301526134e2816134a6565b9050919050565b7f4552433732313a2061646472657373207a65726f206973206e6f74206120766160008201527f6c6964206f776e65720000000000000000000000000000000000000000000000602082015250565b600061354560298361281a565b9150613550826134e9565b604082019050919050565b6000602082019050818103600083015261357481613538565b9050919050565b600081905092915050565b60006135918261280f565b61359b818561357b565b93506135ab81856020860161282b565b80840191505092915050565b60006135c38285613586565b91506135cf8284613586565b91508190509392505050565b7f4f776e61626c653a206e6577206f776e657220697320746865207a65726f206160008201527f6464726573730000000000000000000000000000000000000000000000000000602082015250565b600061363760268361281a565b9150613642826135db565b604082019050919050565b600060208201905081810360008301526136668161362a565b9050919050565b7f4552433732313a207472616e736665722066726f6d20696e636f72726563742060008201527f6f776e6572000000000000000000000000000000000000000000000000000000602082015250565b60006136c960258361281a565b91506136d48261366d565b604082019050919050565b600060208201905081810360008301526136f8816136bc565b9050919050565b7f4552433732313a207472616e7366657220746f20746865207a65726f2061646460008201527f7265737300000000000000000000000000000000000000000000000000000000602082015250565b600061375b60248361281a565b9150613766826136ff565b604082019050919050565b6000602082019050818103600083015261378a8161374e565b9050919050565b600061379c826128ca565b91506137a7836128ca565b9250827fffffffffffffffffffffffffffffffffffffffffffffffffffffffffffffffff038211156137dc576137db613226565b5b828201905092915050565b60006137f2826128ca565b91506137fd836128ca565b9250817fffffffffffffffffffffffffffffffffffffffffffffffffffffffffffffffff048311821515161561383657613835613226565b5b828202905092915050565b7f4f776e61626c653a2063616c6c6572206973206e6f7420746865206f776e6572600082015250565b600061387760208361281a565b915061388282613841565b602082019050919050565b600060208201905081810360008301526138a68161386a565b9050919050565b7f4552433732313a20617070726f766520746f2063616c6c657200000000000000600082015250565b60006138e360198361281a565b91506138ee826138ad565b602082019050919050565b60006020820190508181036000830152613912816138d6565b9050919050565b7f4552433732313a207472616e7366657220746f206e6f6e20455243373231526560008201527f63656976657220696d706c656d656e7465720000000000000000000000000000602082015250565b600061397560328361281a565b915061398082613919565b604082019050919050565b600060208201905081810360008301526139a481613968565b9050919050565b7f4e487b7100000000000000000000000000000000000000000000000000000000600052601260045260246000fd5b7f455243373231456e756d657261626c653a20636f6e736563757469766520747260008201527f616e7366657273206e6f7420737570706f727465640000000000000000000000602082015250565b6000613a3660358361281a565b9150613a41826139da565b604082019050919050565b60006020820190508181036000830152613a6581613a29565b9050919050565b600081519050919050565b600082825260208201905092915050565b6000613a9382613a6c565b613a9d8185613a77565b9350613aad81856020860161282b565b613ab68161285e565b840191505092915050565b6000608082019050613ad6600083018761295f565b613ae3602083018661295f565b613af060408301856129f5565b8181036060830152613b028184613a88565b905095945050505050565b600081519050613b1c81612780565b92915050565b600060208284031215613b3857613b3761274a565b5b6000613b4684828501613b0d565b91505092915050565b6000613b5a826128ca565b9150613b65836128ca565b925082821015613b7857613b77613226565b5b828203905092915050565b7f4e487b7100000000000000000000000000000000000000000000000000000000600052603160045260246000fd5b7f4552433732313a206d696e7420746f20746865207a65726f2061646472657373600082015250565b6000613be860208361281a565b9150613bf382613bb2565b602082019050919050565b60006020820190508181036000830152613c1781613bdb565b9050919050565b7f4552433732313a20746f6b656e20616c7265616479206d696e74656400000000600082015250565b6000613c54601c8361281a565b9150613c5f82613c1e565b602082019050919050565b60006020820190508181036000830152613c8381613c47565b905091905056fea2646970667358221220b91a98e9e98cd3ce5139157d8dc9c3262e4335b517fa99752317a37f9372bb8064736f6c63430008090033",
	"linkReferences": {},
	"deployedLinkReferences": {}
}