{
	"_format": "hh-sol-artifact-1",
	"contractName": "Save_The_Environment",
	"sourceName": "contracts/Save_The_Environment.sol",
	"abi": [
		{
			"inputs": [
				{
					"internalType": "string",
					"name": "baseURI",
					"type": "string"
				}
			],
			"stateMutability": "nonpayable",
			"type": "constructor"
		},
		{
			"anonymous": false,
			"inputs": [
				{
					"indexed": true,
					"internalType": "address",
					"name": "owner",
					"type": "address"
				},
				{
					"indexed": true,
					"internalType": "address",
					"name": "approved",
					"type": "address"
				},
				{
					"indexed": true,
					"internalType": "uint256",
					"name": "tokenId",
					"type": "uint256"
				}
			],
			"name": "Approval",
			"type": "event"
		},
		{
			"anonymous": false,
			"inputs": [
				{
					"indexed": true,
					"internalType": "address",
					"name": "owner",
					"type": "address"
				},
				{
					"indexed": true,
					"internalType": "address",
					"name": "operator",
					"type": "address"
				},
				{
					"indexed": false,
					"internalType": "bool",
					"name": "approved",
					"type": "bool"
				}
			],
			"name": "ApprovalForAll",
			"type": "event"
		},
		{
			"anonymous": false,
			"inputs": [
				{
					"indexed": true,
					"internalType": "address",
					"name": "previousOwner",
					"type": "address"
				},
				{
					"indexed": true,
					"internalType": "address",
					"name": "newOwner",
					"type": "address"
				}
			],
			"name": "OwnershipTransferred",
			"type": "event"
		},
		{
			"anonymous": false,
			"inputs": [
				{
					"indexed": true,
					"internalType": "address",
					"name": "from",
					"type": "address"
				},
				{
					"indexed": true,
					"internalType": "address",
					"name": "to",
					"type": "address"
				},
				{
					"indexed": true,
					"internalType": "uint256",
					"name": "tokenId",
					"type": "uint256"
				}
			],
			"name": "Transfer",
			"type": "event"
		},
		{
			"inputs": [],
			"name": "MAX_PER_MINT",
			"outputs": [
				{
					"internalType": "uint256",
					"name": "",
					"type": "uint256"
				}
			],
			"stateMutability": "view",
			"type": "function"
		},
		{
			"inputs": [],
			"name": "MAX_SUPPLY",
			"outputs": [
				{
					"internalType": "uint256",
					"name": "",
					"type": "uint256"
				}
			],
			"stateMutability": "view",
			"type": "function"
		},
		{
			"inputs": [],
			"name": "PRICE",
			"outputs": [
				{
					"internalType": "uint256",
					"name": "",
					"type": "uint256"
				}
			],
			"stateMutability": "view",
			"type": "function"
		},
		{
			"inputs": [],
			"name": "_tokenIds",
			"outputs": [
				{
					"internalType": "uint256",
					"name": "_value",
					"type": "uint256"
				}
			],
			"stateMutability": "view",
			"type": "function"
		},
		{
			"inputs": [
				{
					"internalType": "address",
					"name": "to",
					"type": "address"
				},
				{
					"internalType": "uint256",
					"name": "tokenId",
					"type": "uint256"
				}
			],
			"name": "approve",
			"outputs": [],
			"stateMutability": "nonpayable",
			"type": "function"
		},
		{
			"inputs": [
				{
					"internalType": "address",
					"name": "owner",
					"type": "address"
				}
			],
			"name": "balanceOf",
			"outputs": [
				{
					"internalType": "uint256",
					"name": "",
					"type": "uint256"
				}
			],
			"stateMutability": "view",
			"type": "function"
		},
		{
			"inputs": [],
			"name": "baseTokenURI",
			"outputs": [
				{
					"internalType": "string",
					"name": "",
					"type": "string"
				}
			],
			"stateMutability": "view",
			"type": "function"
		},
		{
			"inputs": [
				{
					"internalType": "uint256",
					"name": "tokenId",
					"type": "uint256"
				}
			],
			"name": "getApproved",
			"outputs": [
				{
					"internalType": "address",
					"name": "",
					"type": "address"
				}
			],
			"stateMutability": "view",
			"type": "function"
		},
		{
			"inputs": [],
			"name": "getBalance",
			"outputs": [
				{
					"internalType": "uint256",
					"name": "",
					"type": "uint256"
				}
			],
			"stateMutability": "view",
			"type": "function"
		},
		{
			"inputs": [],
			"name": "getTokenIdsMinted",
			"outputs": [
				{
					"internalType": "uint256",
					"name": "",
					"type": "uint256"
				}
			],
			"stateMutability": "view",
			"type": "function"
		},
		{
			"inputs": [
				{
					"internalType": "address",
					"name": "owner",
					"type": "address"
				},
				{
					"internalType": "address",
					"name": "operator",
					"type": "address"
				}
			],
			"name": "isApprovedForAll",
			"outputs": [
				{
					"internalType": "bool",
					"name": "",
					"type": "bool"
				}
			],
			"stateMutability": "view",
			"type": "function"
		},
		{
			"inputs": [
				{
					"internalType": "uint256",
					"name": "_count",
					"type": "uint256"
				}
			],
			"name": "mintNFTs",
			"outputs": [],
			"stateMutability": "payable",
			"type": "function"
		},
		{
			"inputs": [],
			"name": "name",
			"outputs": [
				{
					"internalType": "string",
					"name": "",
					"type": "string"
				}
			],
			"stateMutability": "view",
			"type": "function"
		},
		{
			"inputs": [],
			"name": "owner",
			"outputs": [
				{
					"internalType": "address",
					"name": "",
					"type": "address"
				}
			],
			"stateMutability": "view",
			"type": "function"
		},
		{
			"inputs": [
				{
					"internalType": "uint256",
					"name": "tokenId",
					"type": "uint256"
				}
			],
			"name": "ownerOf",
			"outputs": [
				{
					"internalType": "address",
					"name": "",
					"type": "address"
				}
			],
			"stateMutability": "view",
			"type": "function"
		},
		{
			"inputs": [],
			"name": "renounceOwnership",
			"outputs": [],
			"stateMutability": "nonpayable",
			"type": "function"
		},
		{
			"inputs": [
				{
					"internalType": "address",
					"name": "from",
					"type": "address"
				},
				{
					"internalType": "address",
					"name": "to",
					"type": "address"
				},
				{
					"internalType": "uint256",
					"name": "tokenId",
					"type": "uint256"
				}
			],
			"name": "safeTransferFrom",
			"outputs": [],
			"stateMutability": "nonpayable",
			"type": "function"
		},
		{
			"inputs": [
				{
					"internalType": "address",
					"name": "from",
					"type": "address"
				},
				{
					"internalType": "address",
					"name": "to",
					"type": "address"
				},
				{
					"internalType": "uint256",
					"name": "tokenId",
					"type": "uint256"
				},
				{
					"internalType": "bytes",
					"name": "data",
					"type": "bytes"
				}
			],
			"name": "safeTransferFrom",
			"outputs": [],
			"stateMutability": "nonpayable",
			"type": "function"
		},
		{
			"inputs": [
				{
					"internalType": "address",
					"name": "operator",
					"type": "address"
				},
				{
					"internalType": "bool",
					"name": "approved",
					"type": "bool"
				}
			],
			"name": "setApprovalForAll",
			"outputs": [],
			"stateMutability": "nonpayable",
			"type": "function"
		},
		{
			"inputs": [
				{
					"internalType": "string",
					"name": "_baseTokenURI",
					"type": "string"
				}
			],
			"name": "setBaseURI",
			"outputs": [],
			"stateMutability": "nonpayable",
			"type": "function"
		},
		{
			"inputs": [
				{
					"internalType": "bytes4",
					"name": "interfaceId",
					"type": "bytes4"
				}
			],
			"name": "supportsInterface",
			"outputs": [
				{
					"internalType": "bool",
					"name": "",
					"type": "bool"
				}
			],
			"stateMutability": "view",
			"type": "function"
		},
		{
			"inputs": [],
			"name": "symbol",
			"outputs": [
				{
					"internalType": "string",
					"name": "",
					"type": "string"
				}
			],
			"stateMutability": "view",
			"type": "function"
		},
		{
			"inputs": [
				{
					"internalType": "uint256",
					"name": "index",
					"type": "uint256"
				}
			],
			"name": "tokenByIndex",
			"outputs": [
				{
					"internalType": "uint256",
					"name": "",
					"type": "uint256"
				}
			],
			"stateMutability": "view",
			"type": "function"
		},
		{
			"inputs": [
				{
					"internalType": "address",
					"name": "owner",
					"type": "address"
				},
				{
					"internalType": "uint256",
					"name": "index",
					"type": "uint256"
				}
			],
			"name": "tokenOfOwnerByIndex",
			"outputs": [
				{
					"internalType": "uint256",
					"name": "",
					"type": "uint256"
				}
			],
			"stateMutability": "view",
			"type": "function"
		},
		{
			"inputs": [
				{
					"internalType": "uint256",
					"name": "tokenId",
					"type": "uint256"
				}
			],
			"name": "tokenURI",
			"outputs": [
				{
					"internalType": "string",
					"name": "",
					"type": "string"
				}
			],
			"stateMutability": "view",
			"type": "function"
		},
		{
			"inputs": [],
			"name": "totalSupply",
			"outputs": [
				{
					"internalType": "uint256",
					"name": "",
					"type": "uint256"
				}
			],
			"stateMutability": "view",
			"type": "function"
		},
		{
			"inputs": [
				{
					"internalType": "address",
					"name": "from",
					"type": "address"
				},
				{
					"internalType": "address",
					"name": "to",
					"type": "address"
				},
				{
					"internalType": "uint256",
					"name": "tokenId",
					"type": "uint256"
				}
			],
			"name": "transferFrom",
			"outputs": [],
			"stateMutability": "nonpayable",
			"type": "function"
		},
		{
			"inputs": [
				{
					"internalType": "address",
					"name": "newOwner",
					"type": "address"
				}
			],
			"name": "transferOwnership",
			"outputs": [],
			"stateMutability": "nonpayable",
			"type": "function"
		},
		{
			"inputs": [],
			"name": "withdraw",
			"outputs": [],
			"stateMutability": "payable",
			"type": "function"
		}
	],
	"bytecode": "0x60806040523480156200001157600080fd5b50604051620044c1380380620044c18339818101604052810190620000379190620003e6565b6040518060400160405280601481526020017f536176655f5468655f456e7669726f6e6d656e740000000000000000000000008152506040518060400160405280600781526020017f536176654e4654000000000000000000000000000000000000000000000000008152508160009080519060200190620000bb929190620002c4565b508060019080519060200190620000d4929190620002c4565b505050620000f7620000eb6200010f60201b60201c565b6200011760201b60201c565b6200010881620001dd60201b60201c565b506200061e565b600033905090565b6000600a60009054906101000a900473ffffffffffffffffffffffffffffffffffffffff16905081600a60006101000a81548173ffffffffffffffffffffffffffffffffffffffff021916908373ffffffffffffffffffffffffffffffffffffffff1602179055508173ffffffffffffffffffffffffffffffffffffffff168173ffffffffffffffffffffffffffffffffffffffff167f8be0079c531659141344cd1fd0a4f28419497f9722a3daafe3b4186f6b6457e060405160405180910390a35050565b620001ed6200020960201b60201c565b80600c908051906020019062000205929190620002c4565b5050565b620002196200010f60201b60201c565b73ffffffffffffffffffffffffffffffffffffffff166200023f6200029a60201b60201c565b73ffffffffffffffffffffffffffffffffffffffff161462000298576040517f08c379a00000000000000000000000000000000000000000000000000000000081526004016200028f9062000452565b60405180910390fd5b565b6000600a60009054906101000a900473ffffffffffffffffffffffffffffffffffffffff16905090565b828054620002d2906200051a565b90600052602060002090601f016020900481019282620002f6576000855562000342565b82601f106200031157805160ff191683800117855562000342565b8280016001018555821562000342579182015b828111156200034157825182559160200191906001019062000324565b5b50905062000351919062000355565b5090565b5b808211156200037057600081600090555060010162000356565b5090565b60006200038b62000385846200049d565b62000474565b905082815260208101848484011115620003a457600080fd5b620003b1848285620004e4565b509392505050565b600082601f830112620003cb57600080fd5b8151620003dd84826020860162000374565b91505092915050565b600060208284031215620003f957600080fd5b600082015167ffffffffffffffff8111156200041457600080fd5b6200042284828501620003b9565b91505092915050565b60006200043a602083620004d3565b91506200044782620005f5565b602082019050919050565b600060208201905081810360008301526200046d816200042b565b9050919050565b60006200048062000493565b90506200048e828262000550565b919050565b6000604051905090565b600067ffffffffffffffff821115620004bb57620004ba620005b5565b5b620004c682620005e4565b9050602081019050919050565b600082825260208201905092915050565b60005b8381101562000504578082015181840152602081019050620004e7565b8381111562000514576000848401525b50505050565b600060028204905060018216806200053357607f821691505b602082108114156200054a576200054962000586565b5b50919050565b6200055b82620005e4565b810181811067ffffffffffffffff821117156200057d576200057c620005b5565b5b80604052505050565b7f4e487b7100000000000000000000000000000000000000000000000000000000600052602260045260246000fd5b7f4e487b7100000000000000000000000000000000000000000000000000000000600052604160045260246000fd5b6000601f19601f8301169050919050565b7f4f776e61626c653a2063616c6c6572206973206e6f7420746865206f776e6572600082015250565b613e93806200062e6000396000f3fe6080604052600436106101c25760003560e01c806355f804b3116100f7578063a22cb46511610095578063c87b56dd11610064578063c87b56dd14610616578063d547cfb714610653578063e985e9c51461067e578063f2fde38b146106bb576101c2565b8063a22cb4651461056e578063aa46a40014610597578063b88d4fde146105c2578063c1f57ebb146105eb576101c2565b8063715018a6116100d1578063715018a6146104d65780638d859f3e146104ed5780638da5cb5b1461051857806395d89b4114610543576101c2565b806355f804b3146104335780636352211e1461045c57806370a0823114610499576101c2565b806323b872dd116101645780633b4b13811161013e5780633b4b1381146103a75780633ccfd60b146103c357806342842e0e146103cd5780634f6ccce7146103f6576101c2565b806323b872dd146103165780632f745c591461033f57806332cb6b0c1461037c576101c2565b8063095ea7b3116101a0578063095ea7b31461026c57806309d42b301461029557806312065fe0146102c057806318160ddd146102eb576101c2565b806301ffc9a7146101c757806306fdde0314610204578063081812fc1461022f575b600080fd5b3480156101d357600080fd5b506101ee60048036038101906101e99190612cd4565b6106e4565b6040516101fb9190613202565b60405180910390f35b34801561021057600080fd5b5061021961075e565b604051610226919061321d565b60405180910390f35b34801561023b57600080fd5b5061025660048036038101906102519190612d67565b6107f0565b604051610263919061319b565b60405180910390f35b34801561027857600080fd5b50610293600480360381019061028e9190612c98565b610836565b005b3480156102a157600080fd5b506102aa61094e565b6040516102b791906134df565b60405180910390f35b3480156102cc57600080fd5b506102d5610953565b6040516102e291906134df565b60405180910390f35b3480156102f757600080fd5b5061030061095b565b60405161030d91906134df565b60405180910390f35b34801561032257600080fd5b5061033d60048036038101906103389190612b92565b610968565b005b34801561034b57600080fd5b5061036660048036038101906103619190612c98565b6109c8565b60405161037391906134df565b60405180910390f35b34801561038857600080fd5b50610391610a6d565b60405161039e91906134df565b60405180910390f35b6103c160048036038101906103bc9190612d67565b610a72565b005b6103cb610bad565b005b3480156103d957600080fd5b506103f460048036038101906103ef9190612b92565b610cad565b005b34801561040257600080fd5b5061041d60048036038101906104189190612d67565b610ccd565b60405161042a91906134df565b60405180910390f35b34801561043f57600080fd5b5061045a60048036038101906104559190612d26565b610d64565b005b34801561046857600080fd5b50610483600480360381019061047e9190612d67565b610d86565b604051610490919061319b565b60405180910390f35b3480156104a557600080fd5b506104c060048036038101906104bb9190612b2d565b610e0d565b6040516104cd91906134df565b60405180910390f35b3480156104e257600080fd5b506104eb610ec5565b005b3480156104f957600080fd5b50610502610ed9565b60405161050f91906134df565b60405180910390f35b34801561052457600080fd5b5061052d610ee4565b60405161053a919061319b565b60405180910390f35b34801561054f57600080fd5b50610558610f0e565b604051610565919061321d565b60405180910390f35b34801561057a57600080fd5b5061059560048036038101906105909190612c5c565b610fa0565b005b3480156105a357600080fd5b506105ac610fb6565b6040516105b991906134df565b60405180910390f35b3480156105ce57600080fd5b506105e960048036038101906105e49190612be1565b610fc2565b005b3480156105f757600080fd5b50610600611024565b60405161060d91906134df565b60405180910390f35b34801561062257600080fd5b5061063d60048036038101906106389190612d67565b61103a565b60405161064a919061321d565b60405180910390f35b34801561065f57600080fd5b506106686110a2565b604051610675919061321d565b60405180910390f35b34801561068a57600080fd5b506106a560048036038101906106a09190612b56565b611130565b6040516106b29190613202565b60405180910390f35b3480156106c757600080fd5b506106e260048036038101906106dd9190612b2d565b6111c4565b005b60007f780e9d63000000000000000000000000000000000000000000000000000000007bffffffffffffffffffffffffffffffffffffffffffffffffffffffff1916827bffffffffffffffffffffffffffffffffffffffffffffffffffffffff19161480610757575061075682611248565b5b9050919050565b60606000805461076d90613769565b80601f016020809104026020016040519081016040528092919081815260200182805461079990613769565b80156107e65780601f106107bb576101008083540402835291602001916107e6565b820191906000526020600020905b8154815290600101906020018083116107c957829003601f168201915b5050505050905090565b60006107fb8261132a565b6004600083815260200190815260200160002060009054906101000a900473ffffffffffffffffffffffffffffffffffffffff169050919050565b600061084182610d86565b90508073ffffffffffffffffffffffffffffffffffffffff168373ffffffffffffffffffffffffffffffffffffffff1614156108b2576040517f08c379a00000000000000000000000000000000000000000000000000000000081526004016108a99061343f565b60405180910390fd5b8073ffffffffffffffffffffffffffffffffffffffff166108d1611375565b73ffffffffffffffffffffffffffffffffffffffff16148061090057506108ff816108fa611375565b611130565b5b61093f576040517f08c379a00000000000000000000000000000000000000000000000000000000081526004016109369061345f565b60405180910390fd5b610949838361137d565b505050565b600281565b600047905090565b6000600880549050905090565b610979610973611375565b82611436565b6109b8576040517f08c379a00000000000000000000000000000000000000000000000000000000081526004016109af9061323f565b60405180910390fd5b6109c38383836114cb565b505050565b60006109d383610e0d565b8210610a14576040517f08c379a0000000000000000000000000000000000000000000000000000000008152600401610a0b9061325f565b60405180910390fd5b600660008473ffffffffffffffffffffffffffffffffffffffff1673ffffffffffffffffffffffffffffffffffffffff168152602001908152602001600020600083815260200190815260200160002054905092915050565b600a81565b6000610a7e600b6117c5565b9050600a610a9583836117d390919063ffffffff16565b1115610ad6576040517f08c379a0000000000000000000000000000000000000000000000000000000008152600401610acd9061335f565b60405180910390fd5b600082118015610ae7575060028211155b610b26576040517f08c379a0000000000000000000000000000000000000000000000000000000008152600401610b1d9061337f565b60405180910390fd5b610b408266038d7ea4c680006117e990919063ffffffff16565b341015610b82576040517f08c379a0000000000000000000000000000000000000000000000000000000008152600401610b799061333f565b60405180910390fd5b60005b82811015610ba857610b956117ff565b8080610ba0906137cc565b915050610b85565b505050565b610bb5611824565b600047905060008111610bfd576040517f08c379a0000000000000000000000000000000000000000000000000000000008152600401610bf4906133df565b60405180910390fd5b60003373ffffffffffffffffffffffffffffffffffffffff1682604051610c2390613186565b60006040518083038185875af1925050503d8060008114610c60576040519150601f19603f3d011682016040523d82523d6000602084013e610c65565b606091505b5050905080610ca9576040517f08c379a0000000000000000000000000000000000000000000000000000000008152600401610ca09061347f565b60405180910390fd5b5050565b610cc883838360405180602001604052806000815250610fc2565b505050565b6000610cd761095b565b8210610d18576040517f08c379a0000000000000000000000000000000000000000000000000000000008152600401610d0f9061349f565b60405180910390fd5b60088281548110610d52577f4e487b7100000000000000000000000000000000000000000000000000000000600052603260045260246000fd5b90600052602060002001549050919050565b610d6c611824565b80600c9080519060200190610d82929190612951565b5050565b600080610d92836118a2565b9050600073ffffffffffffffffffffffffffffffffffffffff168173ffffffffffffffffffffffffffffffffffffffff161415610e04576040517f08c379a0000000000000000000000000000000000000000000000000000000008152600401610dfb9061341f565b60405180910390fd5b80915050919050565b60008073ffffffffffffffffffffffffffffffffffffffff168273ffffffffffffffffffffffffffffffffffffffff161415610e7e576040517f08c379a0000000000000000000000000000000000000000000000000000000008152600401610e759061339f565b60405180910390fd5b600360008373ffffffffffffffffffffffffffffffffffffffff1673ffffffffffffffffffffffffffffffffffffffff168152602001908152602001600020549050919050565b610ecd611824565b610ed760006118df565b565b66038d7ea4c6800081565b6000600a60009054906101000a900473ffffffffffffffffffffffffffffffffffffffff16905090565b606060018054610f1d90613769565b80601f0160208091040260200160405190810160405280929190818152602001828054610f4990613769565b8015610f965780601f10610f6b57610100808354040283529160200191610f96565b820191906000526020600020905b815481529060010190602001808311610f7957829003601f168201915b5050505050905090565b610fb2610fab611375565b83836119a5565b5050565b600b8060000154905081565b610fd3610fcd611375565b83611436565b611012576040517f08c379a00000000000000000000000000000000000000000000000000000000081526004016110099061323f565b60405180910390fd5b61101e84848484611b12565b50505050565b600080611031600b6117c5565b90508091505090565b60606110458261132a565b600061104f611b6e565b9050600081511161106f576040518060200160405280600081525061109a565b8061107984611c00565b60405160200161108a929190613162565b6040516020818303038152906040525b915050919050565b600c80546110af90613769565b80601f01602080910402602001604051908101604052809291908181526020018280546110db90613769565b80156111285780601f106110fd57610100808354040283529160200191611128565b820191906000526020600020905b81548152906001019060200180831161110b57829003601f168201915b505050505081565b6000600560008473ffffffffffffffffffffffffffffffffffffffff1673ffffffffffffffffffffffffffffffffffffffff16815260200190815260200160002060008373ffffffffffffffffffffffffffffffffffffffff1673ffffffffffffffffffffffffffffffffffffffff16815260200190815260200160002060009054906101000a900460ff16905092915050565b6111cc611824565b600073ffffffffffffffffffffffffffffffffffffffff168173ffffffffffffffffffffffffffffffffffffffff16141561123c576040517f08c379a00000000000000000000000000000000000000000000000000000000081526004016112339061329f565b60405180910390fd5b611245816118df565b50565b60007f80ac58cd000000000000000000000000000000000000000000000000000000007bffffffffffffffffffffffffffffffffffffffffffffffffffffffff1916827bffffffffffffffffffffffffffffffffffffffffffffffffffffffff1916148061131357507f5b5e139f000000000000000000000000000000000000000000000000000000007bffffffffffffffffffffffffffffffffffffffffffffffffffffffff1916827bffffffffffffffffffffffffffffffffffffffffffffffffffffffff1916145b80611323575061132282611d24565b5b9050919050565b61133381611d8e565b611372576040517f08c379a00000000000000000000000000000000000000000000000000000000081526004016113699061341f565b60405180910390fd5b50565b600033905090565b816004600083815260200190815260200160002060006101000a81548173ffffffffffffffffffffffffffffffffffffffff021916908373ffffffffffffffffffffffffffffffffffffffff160217905550808273ffffffffffffffffffffffffffffffffffffffff166113f083610d86565b73ffffffffffffffffffffffffffffffffffffffff167f8c5be1e5ebec7d5bd14f71427d1e84f3dd0314c0f7b2291e5b200ac8c7c3b92560405160405180910390a45050565b60008061144283610d86565b90508073ffffffffffffffffffffffffffffffffffffffff168473ffffffffffffffffffffffffffffffffffffffff16148061148457506114838185611130565b5b806114c257508373ffffffffffffffffffffffffffffffffffffffff166114aa846107f0565b73ffffffffffffffffffffffffffffffffffffffff16145b91505092915050565b8273ffffffffffffffffffffffffffffffffffffffff166114eb82610d86565b73ffffffffffffffffffffffffffffffffffffffff1614611541576040517f08c379a0000000000000000000000000000000000000000000000000000000008152600401611538906132bf565b60405180910390fd5b600073ffffffffffffffffffffffffffffffffffffffff168273ffffffffffffffffffffffffffffffffffffffff1614156115b1576040517f08c379a00000000000000000000000000000000000000000000000000000000081526004016115a8906132ff565b60405180910390fd5b6115be8383836001611dcf565b8273ffffffffffffffffffffffffffffffffffffffff166115de82610d86565b73ffffffffffffffffffffffffffffffffffffffff1614611634576040517f08c379a000000000000000000000000000000000000000000000000000000000815260040161162b906132bf565b60405180910390fd5b6004600082815260200190815260200160002060006101000a81549073ffffffffffffffffffffffffffffffffffffffff02191690556001600360008573ffffffffffffffffffffffffffffffffffffffff1673ffffffffffffffffffffffffffffffffffffffff168152602001908152602001600020600082825403925050819055506001600360008473ffffffffffffffffffffffffffffffffffffffff1673ffffffffffffffffffffffffffffffffffffffff16815260200190815260200160002060008282540192505081905550816002600083815260200190815260200160002060006101000a81548173ffffffffffffffffffffffffffffffffffffffff021916908373ffffffffffffffffffffffffffffffffffffffff160217905550808273ffffffffffffffffffffffffffffffffffffffff168473ffffffffffffffffffffffffffffffffffffffff167fddf252ad1be2c89b69c2b068fc378daa952ba7f163c4a11628f55a4df523b3ef60405160405180910390a46117c08383836001611f2f565b505050565b600081600001549050919050565b600081836117e191906135cf565b905092915050565b600081836117f79190613625565b905092915050565b600061180b600b6117c5565b90506118173382611f35565b611821600b611f53565b50565b61182c611375565b73ffffffffffffffffffffffffffffffffffffffff1661184a610ee4565b73ffffffffffffffffffffffffffffffffffffffff16146118a0576040517f08c379a0000000000000000000000000000000000000000000000000000000008152600401611897906133ff565b60405180910390fd5b565b60006002600083815260200190815260200160002060009054906101000a900473ffffffffffffffffffffffffffffffffffffffff169050919050565b6000600a60009054906101000a900473ffffffffffffffffffffffffffffffffffffffff16905081600a60006101000a81548173ffffffffffffffffffffffffffffffffffffffff021916908373ffffffffffffffffffffffffffffffffffffffff1602179055508173ffffffffffffffffffffffffffffffffffffffff168173ffffffffffffffffffffffffffffffffffffffff167f8be0079c531659141344cd1fd0a4f28419497f9722a3daafe3b4186f6b6457e060405160405180910390a35050565b8173ffffffffffffffffffffffffffffffffffffffff168373ffffffffffffffffffffffffffffffffffffffff161415611a14576040517f08c379a0000000000000000000000000000000000000000000000000000000008152600401611a0b9061331f565b60405180910390fd5b80600560008573ffffffffffffffffffffffffffffffffffffffff1673ffffffffffffffffffffffffffffffffffffffff16815260200190815260200160002060008473ffffffffffffffffffffffffffffffffffffffff1673ffffffffffffffffffffffffffffffffffffffff16815260200190815260200160002060006101000a81548160ff0219169083151502179055508173ffffffffffffffffffffffffffffffffffffffff168373ffffffffffffffffffffffffffffffffffffffff167f17307eab39ab6107e8899845ad3d59bd9653f200f220920489ca2b5937696c3183604051611b059190613202565b60405180910390a3505050565b611b1d8484846114cb565b611b2984848484611f69565b611b68576040517f08c379a0000000000000000000000000000000000000000000000000000000008152600401611b5f9061327f565b60405180910390fd5b50505050565b6060600c8054611b7d90613769565b80601f0160208091040260200160405190810160405280929190818152602001828054611ba990613769565b8015611bf65780601f10611bcb57610100808354040283529160200191611bf6565b820191906000526020600020905b815481529060010190602001808311611bd957829003601f168201915b5050505050905090565b606060006001611c0f84612100565b01905060008167ffffffffffffffff811115611c54577f4e487b7100000000000000000000000000000000000000000000000000000000600052604160045260246000fd5b6040519080825280601f01601f191660200182016040528015611c865781602001600182028036833780820191505090505b509050600082602001820190505b600115611d19578080600190039150507f3031323334353637383961626364656600000000000000000000000000000000600a86061a8153600a8581611d03577f4e487b7100000000000000000000000000000000000000000000000000000000600052601260045260246000fd5b0494506000851415611d1457611d19565b611c94565b819350505050919050565b60007f01ffc9a7000000000000000000000000000000000000000000000000000000007bffffffffffffffffffffffffffffffffffffffffffffffffffffffff1916827bffffffffffffffffffffffffffffffffffffffffffffffffffffffff1916149050919050565b60008073ffffffffffffffffffffffffffffffffffffffff16611db0836118a2565b73ffffffffffffffffffffffffffffffffffffffff1614159050919050565b611ddb84848484612337565b6001811115611e1f576040517f08c379a0000000000000000000000000000000000000000000000000000000008152600401611e16906134bf565b60405180910390fd5b6000829050600073ffffffffffffffffffffffffffffffffffffffff168573ffffffffffffffffffffffffffffffffffffffff161415611e6757611e628161233d565b611ea6565b8373ffffffffffffffffffffffffffffffffffffffff168573ffffffffffffffffffffffffffffffffffffffff1614611ea557611ea48582612386565b5b5b600073ffffffffffffffffffffffffffffffffffffffff168473ffffffffffffffffffffffffffffffffffffffff161415611ee957611ee4816124f3565b611f28565b8473ffffffffffffffffffffffffffffffffffffffff168473ffffffffffffffffffffffffffffffffffffffff1614611f2757611f268482612636565b5b5b5050505050565b50505050565b611f4f8282604051806020016040528060008152506126b5565b5050565b6001816000016000828254019250508190555050565b6000611f8a8473ffffffffffffffffffffffffffffffffffffffff16612710565b156120f3578373ffffffffffffffffffffffffffffffffffffffff1663150b7a02611fb3611375565b8786866040518563ffffffff1660e01b8152600401611fd594939291906131b6565b602060405180830381600087803b158015611fef57600080fd5b505af192505050801561202057506040513d601f19601f8201168201806040525081019061201d9190612cfd565b60015b6120a3573d8060008114612050576040519150601f19603f3d011682016040523d82523d6000602084013e612055565b606091505b5060008151141561209b576040517f08c379a00000000000000000000000000000000000000000000000000000000081526004016120929061327f565b60405180910390fd5b805181602001fd5b63150b7a0260e01b7bffffffffffffffffffffffffffffffffffffffffffffffffffffffff1916817bffffffffffffffffffffffffffffffffffffffffffffffffffffffff1916149150506120f8565b600190505b949350505050565b600080600090507a184f03e93ff9f4daa797ed6e38ed64bf6a1f0100000000000000008310612184577a184f03e93ff9f4daa797ed6e38ed64bf6a1f010000000000000000838161217a577f4e487b7100000000000000000000000000000000000000000000000000000000600052601260045260246000fd5b0492506040810190505b6d04ee2d6d415b85acef810000000083106121e7576d04ee2d6d415b85acef810000000083816121dd577f4e487b7100000000000000000000000000000000000000000000000000000000600052601260045260246000fd5b0492506020810190505b662386f26fc10000831061223c57662386f26fc100008381612232577f4e487b7100000000000000000000000000000000000000000000000000000000600052601260045260246000fd5b0492506010810190505b6305f5e100831061228b576305f5e1008381612281577f4e487b7100000000000000000000000000000000000000000000000000000000600052601260045260246000fd5b0492506008810190505b61271083106122d65761271083816122cc577f4e487b7100000000000000000000000000000000000000000000000000000000600052601260045260246000fd5b0492506004810190505b6064831061231f5760648381612315577f4e487b7100000000000000000000000000000000000000000000000000000000600052601260045260246000fd5b0492506002810190505b600a831061232e576001810190505b80915050919050565b50505050565b6008805490506009600083815260200190815260200160002081905550600881908060018154018082558091505060019003906000526020600020016000909190919091505550565b6000600161239384610e0d565b61239d919061367f565b9050600060076000848152602001908152602001600020549050818114612482576000600660008673ffffffffffffffffffffffffffffffffffffffff1673ffffffffffffffffffffffffffffffffffffffff168152602001908152602001600020600084815260200190815260200160002054905080600660008773ffffffffffffffffffffffffffffffffffffffff1673ffffffffffffffffffffffffffffffffffffffff168152602001908152602001600020600084815260200190815260200160002081905550816007600083815260200190815260200160002081905550505b6007600084815260200190815260200160002060009055600660008573ffffffffffffffffffffffffffffffffffffffff1673ffffffffffffffffffffffffffffffffffffffff16815260200190815260200160002060008381526020019081526020016000206000905550505050565b60006001600880549050612507919061367f565b905060006009600084815260200190815260200160002054905060006008838154811061255d577f4e487b7100000000000000000000000000000000000000000000000000000000600052603260045260246000fd5b9060005260206000200154905080600883815481106125a5577f4e487b7100000000000000000000000000000000000000000000000000000000600052603260045260246000fd5b90600052602060002001819055508160096000838152602001908152602001600020819055506009600085815260200190815260200160002060009055600880548061261a577f4e487b7100000000000000000000000000000000000000000000000000000000600052603160045260246000fd5b6001900381819060005260206000200160009055905550505050565b600061264183610e0d565b905081600660008573ffffffffffffffffffffffffffffffffffffffff1673ffffffffffffffffffffffffffffffffffffffff168152602001908152602001600020600083815260200190815260200160002081905550806007600084815260200190815260200160002081905550505050565b6126bf8383612733565b6126cc6000848484611f69565b61270b576040517f08c379a00000000000000000000000000000000000000000000000000000000081526004016127029061327f565b60405180910390fd5b505050565b6000808273ffffffffffffffffffffffffffffffffffffffff163b119050919050565b600073ffffffffffffffffffffffffffffffffffffffff168273ffffffffffffffffffffffffffffffffffffffff1614156127a3576040517f08c379a000000000000000000000000000000000000000000000000000000000815260040161279a906133bf565b60405180910390fd5b6127ac81611d8e565b156127ec576040517f08c379a00000000000000000000000000000000000000000000000000000000081526004016127e3906132df565b60405180910390fd5b6127fa600083836001611dcf565b61280381611d8e565b15612843576040517f08c379a000000000000000000000000000000000000000000000000000000000815260040161283a906132df565b60405180910390fd5b6001600360008473ffffffffffffffffffffffffffffffffffffffff1673ffffffffffffffffffffffffffffffffffffffff16815260200190815260200160002060008282540192505081905550816002600083815260200190815260200160002060006101000a81548173ffffffffffffffffffffffffffffffffffffffff021916908373ffffffffffffffffffffffffffffffffffffffff160217905550808273ffffffffffffffffffffffffffffffffffffffff16600073ffffffffffffffffffffffffffffffffffffffff167fddf252ad1be2c89b69c2b068fc378daa952ba7f163c4a11628f55a4df523b3ef60405160405180910390a461294d600083836001611f2f565b5050565b82805461295d90613769565b90600052602060002090601f01602090048101928261297f57600085556129c6565b82601f1061299857805160ff19168380011785556129c6565b828001600101855582156129c6579182015b828111156129c55782518255916020019190600101906129aa565b5b5090506129d391906129d7565b5090565b5b808211156129f05760008160009055506001016129d8565b5090565b6000612a07612a028461351f565b6134fa565b905082815260208101848484011115612a1f57600080fd5b612a2a848285613727565b509392505050565b6000612a45612a4084613550565b6134fa565b905082815260208101848484011115612a5d57600080fd5b612a68848285613727565b509392505050565b600081359050612a7f81613e01565b92915050565b600081359050612a9481613e18565b92915050565b600081359050612aa981613e2f565b92915050565b600081519050612abe81613e2f565b92915050565b600082601f830112612ad557600080fd5b8135612ae58482602086016129f4565b91505092915050565b600082601f830112612aff57600080fd5b8135612b0f848260208601612a32565b91505092915050565b600081359050612b2781613e46565b92915050565b600060208284031215612b3f57600080fd5b6000612b4d84828501612a70565b91505092915050565b60008060408385031215612b6957600080fd5b6000612b7785828601612a70565b9250506020612b8885828601612a70565b9150509250929050565b600080600060608486031215612ba757600080fd5b6000612bb586828701612a70565b9350506020612bc686828701612a70565b9250506040612bd786828701612b18565b9150509250925092565b60008060008060808587031215612bf757600080fd5b6000612c0587828801612a70565b9450506020612c1687828801612a70565b9350506040612c2787828801612b18565b925050606085013567ffffffffffffffff811115612c4457600080fd5b612c5087828801612ac4565b91505092959194509250565b60008060408385031215612c6f57600080fd5b6000612c7d85828601612a70565b9250506020612c8e85828601612a85565b9150509250929050565b60008060408385031215612cab57600080fd5b6000612cb985828601612a70565b9250506020612cca85828601612b18565b9150509250929050565b600060208284031215612ce657600080fd5b6000612cf484828501612a9a565b91505092915050565b600060208284031215612d0f57600080fd5b6000612d1d84828501612aaf565b91505092915050565b600060208284031215612d3857600080fd5b600082013567ffffffffffffffff811115612d5257600080fd5b612d5e84828501612aee565b91505092915050565b600060208284031215612d7957600080fd5b6000612d8784828501612b18565b91505092915050565b612d99816136b3565b82525050565b612da8816136c5565b82525050565b6000612db982613581565b612dc38185613597565b9350612dd3818560208601613736565b612ddc816138a2565b840191505092915050565b6000612df28261358c565b612dfc81856135b3565b9350612e0c818560208601613736565b612e15816138a2565b840191505092915050565b6000612e2b8261358c565b612e3581856135c4565b9350612e45818560208601613736565b80840191505092915050565b6000612e5e602d836135b3565b9150612e69826138b3565b604082019050919050565b6000612e81602b836135b3565b9150612e8c82613902565b604082019050919050565b6000612ea46032836135b3565b9150612eaf82613951565b604082019050919050565b6000612ec76026836135b3565b9150612ed2826139a0565b604082019050919050565b6000612eea6025836135b3565b9150612ef5826139ef565b604082019050919050565b6000612f0d601c836135b3565b9150612f1882613a3e565b602082019050919050565b6000612f306024836135b3565b9150612f3b82613a67565b604082019050919050565b6000612f536019836135b3565b9150612f5e82613ab6565b602082019050919050565b6000612f766022836135b3565b9150612f8182613adf565b604082019050919050565b6000612f996015836135b3565b9150612fa482613b2e565b602082019050919050565b6000612fbc6025836135b3565b9150612fc782613b57565b604082019050919050565b6000612fdf6029836135b3565b9150612fea82613ba6565b604082019050919050565b60006130026020836135b3565b915061300d82613bf5565b602082019050919050565b60006130256019836135b3565b915061303082613c1e565b602082019050919050565b60006130486020836135b3565b915061305382613c47565b602082019050919050565b600061306b6018836135b3565b915061307682613c70565b602082019050919050565b600061308e6021836135b3565b915061309982613c99565b604082019050919050565b60006130b16000836135a8565b91506130bc82613ce8565b600082019050919050565b60006130d4603d836135b3565b91506130df82613ceb565b604082019050919050565b60006130f76010836135b3565b915061310282613d3a565b602082019050919050565b600061311a602c836135b3565b915061312582613d63565b604082019050919050565b600061313d6035836135b3565b915061314882613db2565b604082019050919050565b61315c8161371d565b82525050565b600061316e8285612e20565b915061317a8284612e20565b91508190509392505050565b6000613191826130a4565b9150819050919050565b60006020820190506131b06000830184612d90565b92915050565b60006080820190506131cb6000830187612d90565b6131d86020830186612d90565b6131e56040830185613153565b81810360608301526131f78184612dae565b905095945050505050565b60006020820190506132176000830184612d9f565b92915050565b600060208201905081810360008301526132378184612de7565b905092915050565b6000602082019050818103600083015261325881612e51565b9050919050565b6000602082019050818103600083015261327881612e74565b9050919050565b6000602082019050818103600083015261329881612e97565b9050919050565b600060208201905081810360008301526132b881612eba565b9050919050565b600060208201905081810360008301526132d881612edd565b9050919050565b600060208201905081810360008301526132f881612f00565b9050919050565b6000602082019050818103600083015261331881612f23565b9050919050565b6000602082019050818103600083015261333881612f46565b9050919050565b6000602082019050818103600083015261335881612f69565b9050919050565b6000602082019050818103600083015261337881612f8c565b9050919050565b6000602082019050818103600083015261339881612faf565b9050919050565b600060208201905081810360008301526133b881612fd2565b9050919050565b600060208201905081810360008301526133d881612ff5565b9050919050565b600060208201905081810360008301526133f881613018565b9050919050565b600060208201905081810360008301526134188161303b565b9050919050565b600060208201905081810360008301526134388161305e565b9050919050565b6000602082019050818103600083015261345881613081565b9050919050565b60006020820190508181036000830152613478816130c7565b9050919050565b60006020820190508181036000830152613498816130ea565b9050919050565b600060208201905081810360008301526134b88161310d565b9050919050565b600060208201905081810360008301526134d881613130565b9050919050565b60006020820190506134f46000830184613153565b92915050565b6000613504613515565b9050613510828261379b565b919050565b6000604051905090565b600067ffffffffffffffff82111561353a57613539613873565b5b613543826138a2565b9050602081019050919050565b600067ffffffffffffffff82111561356b5761356a613873565b5b613574826138a2565b9050602081019050919050565b600081519050919050565b600081519050919050565b600082825260208201905092915050565b600081905092915050565b600082825260208201905092915050565b600081905092915050565b60006135da8261371d565b91506135e58361371d565b9250827fffffffffffffffffffffffffffffffffffffffffffffffffffffffffffffffff0382111561361a57613619613815565b5b828201905092915050565b60006136308261371d565b915061363b8361371d565b9250817fffffffffffffffffffffffffffffffffffffffffffffffffffffffffffffffff048311821515161561367457613673613815565b5b828202905092915050565b600061368a8261371d565b91506136958361371d565b9250828210156136a8576136a7613815565b5b828203905092915050565b60006136be826136fd565b9050919050565b60008115159050919050565b60007fffffffff0000000000000000000000000000000000000000000000000000000082169050919050565b600073ffffffffffffffffffffffffffffffffffffffff82169050919050565b6000819050919050565b82818337600083830152505050565b60005b83811015613754578082015181840152602081019050613739565b83811115613763576000848401525b50505050565b6000600282049050600182168061378157607f821691505b6020821081141561379557613794613844565b5b50919050565b6137a4826138a2565b810181811067ffffffffffffffff821117156137c3576137c2613873565b5b80604052505050565b60006137d78261371d565b91507fffffffffffffffffffffffffffffffffffffffffffffffffffffffffffffffff82141561380a57613809613815565b5b600182019050919050565b7f4e487b7100000000000000000000000000000000000000000000000000000000600052601160045260246000fd5b7f4e487b7100000000000000000000000000000000000000000000000000000000600052602260045260246000fd5b7f4e487b7100000000000000000000000000000000000000000000000000000000600052604160045260246000fd5b6000601f19601f8301169050919050565b7f4552433732313a2063616c6c6572206973206e6f7420746f6b656e206f776e6560008201527f72206f7220617070726f76656400000000000000000000000000000000000000602082015250565b7f455243373231456e756d657261626c653a206f776e657220696e646578206f7560008201527f74206f6620626f756e6473000000000000000000000000000000000000000000602082015250565b7f4552433732313a207472616e7366657220746f206e6f6e20455243373231526560008201527f63656976657220696d706c656d656e7465720000000000000000000000000000602082015250565b7f4f776e61626c653a206e6577206f776e657220697320746865207a65726f206160008201527f6464726573730000000000000000000000000000000000000000000000000000602082015250565b7f4552433732313a207472616e736665722066726f6d20696e636f72726563742060008201527f6f776e6572000000000000000000000000000000000000000000000000000000602082015250565b7f4552433732313a20746f6b656e20616c7265616479206d696e74656400000000600082015250565b7f4552433732313a207472616e7366657220746f20746865207a65726f2061646460008201527f7265737300000000000000000000000000000000000000000000000000000000602082015250565b7f4552433732313a20617070726f766520746f2063616c6c657200000000000000600082015250565b7f4e6f7420656e6f75676820657468657220746f207075726368617365204e465460008201527f732e000000000000000000000000000000000000000000000000000000000000602082015250565b7f4e6f7420656e6f756768204e465473206c656674210000000000000000000000600082015250565b7f43616e6e6f74206d696e7420737065636966696564206e756d626572206f662060008201527f4e4654732e000000000000000000000000000000000000000000000000000000602082015250565b7f4552433732313a2061646472657373207a65726f206973206e6f74206120766160008201527f6c6964206f776e65720000000000000000000000000000000000000000000000602082015250565b7f4552433732313a206d696e7420746f20746865207a65726f2061646472657373600082015250565b7f4e6f206574686572206c65667420746f20776974686472617700000000000000600082015250565b7f4f776e61626c653a2063616c6c6572206973206e6f7420746865206f776e6572600082015250565b7f4552433732313a20696e76616c696420746f6b656e2049440000000000000000600082015250565b7f4552433732313a20617070726f76616c20746f2063757272656e74206f776e6560008201527f7200000000000000000000000000000000000000000000000000000000000000602082015250565b50565b7f4552433732313a20617070726f76652063616c6c6572206973206e6f7420746f60008201527f6b656e206f776e6572206f7220617070726f76656420666f7220616c6c000000602082015250565b7f5472616e73666572206661696c65642e00000000000000000000000000000000600082015250565b7f455243373231456e756d657261626c653a20676c6f62616c20696e646578206f60008201527f7574206f6620626f756e64730000000000000000000000000000000000000000602082015250565b7f455243373231456e756d657261626c653a20636f6e736563757469766520747260008201527f616e7366657273206e6f7420737570706f727465640000000000000000000000602082015250565b613e0a816136b3565b8114613e1557600080fd5b50565b613e21816136c5565b8114613e2c57600080fd5b50565b613e38816136d1565b8114613e4357600080fd5b50565b613e4f8161371d565b8114613e5a57600080fd5b5056fea2646970667358221220869d27b320e39bb3fbf18e06b2c255c83e50517fb2c800763df3adb3d893295e64736f6c63430008040033",
	"linkReferences": {},
	"deployedLinkReferences": {}
}