{
  "_format": "hh-sol-artifact-1",
  "contractName": "AnezichukwuNFT",
  "sourceName": "contracts/AnezichukwuNFT.sol",
  "abi": [
    {
      "inputs": [
        {
          "internalType": "string",
          "name": "baseURI",
          "type": "string"
        }
      ],
      "stateMutability": "nonpayable",
      "type": "constructor"
    },
    {
      "anonymous": false,
      "inputs": [
        {
          "indexed": true,
          "internalType": "address",
          "name": "owner",
          "type": "address"
        },
        {
          "indexed": true,
          "internalType": "address",
          "name": "approved",
          "type": "address"
        },
        {
          "indexed": true,
          "internalType": "uint256",
          "name": "tokenId",
          "type": "uint256"
        }
      ],
      "name": "Approval",
      "type": "event"
    },
    {
      "anonymous": false,
      "inputs": [
        {
          "indexed": true,
          "internalType": "address",
          "name": "owner",
          "type": "address"
        },
        {
          "indexed": true,
          "internalType": "address",
          "name": "operator",
          "type": "address"
        },
        {
          "indexed": false,
          "internalType": "bool",
          "name": "approved",
          "type": "bool"
        }
      ],
      "name": "ApprovalForAll",
      "type": "event"
    },
    {
      "anonymous": false,
      "inputs": [
        {
          "indexed": true,
          "internalType": "address",
          "name": "previousOwner",
          "type": "address"
        },
        {
          "indexed": true,
          "internalType": "address",
          "name": "newOwner",
          "type": "address"
        }
      ],
      "name": "OwnershipTransferred",
      "type": "event"
    },
    {
      "anonymous": false,
      "inputs": [
        {
          "indexed": true,
          "internalType": "address",
          "name": "from",
          "type": "address"
        },
        {
          "indexed": true,
          "internalType": "address",
          "name": "to",
          "type": "address"
        },
        {
          "indexed": true,
          "internalType": "uint256",
          "name": "tokenId",
          "type": "uint256"
        }
      ],
      "name": "Transfer",
      "type": "event"
    },
    {
      "inputs": [],
      "name": "MAX_PER_MINT",
      "outputs": [
        {
          "internalType": "uint256",
          "name": "",
          "type": "uint256"
        }
      ],
      "stateMutability": "view",
      "type": "function"
    },
    {
      "inputs": [],
      "name": "MAX_SUPPLY",
      "outputs": [
        {
          "internalType": "uint256",
          "name": "",
          "type": "uint256"
        }
      ],
      "stateMutability": "view",
      "type": "function"
    },
    {
      "inputs": [],
      "name": "PRICE",
      "outputs": [
        {
          "internalType": "uint256",
          "name": "",
          "type": "uint256"
        }
      ],
      "stateMutability": "view",
      "type": "function"
    },
    {
      "inputs": [
        {
          "internalType": "address",
          "name": "to",
          "type": "address"
        },
        {
          "internalType": "uint256",
          "name": "tokenId",
          "type": "uint256"
        }
      ],
      "name": "approve",
      "outputs": [],
      "stateMutability": "nonpayable",
      "type": "function"
    },
    {
      "inputs": [
        {
          "internalType": "address",
          "name": "owner",
          "type": "address"
        }
      ],
      "name": "balanceOf",
      "outputs": [
        {
          "internalType": "uint256",
          "name": "",
          "type": "uint256"
        }
      ],
      "stateMutability": "view",
      "type": "function"
    },
    {
      "inputs": [],
      "name": "baseTokenURI",
      "outputs": [
        {
          "internalType": "string",
          "name": "",
          "type": "string"
        }
      ],
      "stateMutability": "view",
      "type": "function"
    },
    {
      "inputs": [
        {
          "internalType": "uint256",
          "name": "tokenId",
          "type": "uint256"
        }
      ],
      "name": "getApproved",
      "outputs": [
        {
          "internalType": "address",
          "name": "",
          "type": "address"
        }
      ],
      "stateMutability": "view",
      "type": "function"
    },
    {
      "inputs": [
        {
          "internalType": "address",
          "name": "owner",
          "type": "address"
        },
        {
          "internalType": "address",
          "name": "operator",
          "type": "address"
        }
      ],
      "name": "isApprovedForAll",
      "outputs": [
        {
          "internalType": "bool",
          "name": "",
          "type": "bool"
        }
      ],
      "stateMutability": "view",
      "type": "function"
    },
    {
      "inputs": [
        {
          "internalType": "uint256",
          "name": "_count",
          "type": "uint256"
        }
      ],
      "name": "mintNFTs",
      "outputs": [],
      "stateMutability": "payable",
      "type": "function"
    },
    {
      "inputs": [],
      "name": "name",
      "outputs": [
        {
          "internalType": "string",
          "name": "",
          "type": "string"
        }
      ],
      "stateMutability": "view",
      "type": "function"
    },
    {
      "inputs": [],
      "name": "owner",
      "outputs": [
        {
          "internalType": "address",
          "name": "",
          "type": "address"
        }
      ],
      "stateMutability": "view",
      "type": "function"
    },
    {
      "inputs": [
        {
          "internalType": "uint256",
          "name": "tokenId",
          "type": "uint256"
        }
      ],
      "name": "ownerOf",
      "outputs": [
        {
          "internalType": "address",
          "name": "",
          "type": "address"
        }
      ],
      "stateMutability": "view",
      "type": "function"
    },
    {
      "inputs": [],
      "name": "renounceOwnership",
      "outputs": [],
      "stateMutability": "nonpayable",
      "type": "function"
    },
    {
      "inputs": [],
      "name": "reserveNFTs",
      "outputs": [],
      "stateMutability": "nonpayable",
      "type": "function"
    },
    {
      "inputs": [
        {
          "internalType": "address",
          "name": "from",
          "type": "address"
        },
        {
          "internalType": "address",
          "name": "to",
          "type": "address"
        },
        {
          "internalType": "uint256",
          "name": "tokenId",
          "type": "uint256"
        }
      ],
      "name": "safeTransferFrom",
      "outputs": [],
      "stateMutability": "nonpayable",
      "type": "function"
    },
    {
      "inputs": [
        {
          "internalType": "address",
          "name": "from",
          "type": "address"
        },
        {
          "internalType": "address",
          "name": "to",
          "type": "address"
        },
        {
          "internalType": "uint256",
          "name": "tokenId",
          "type": "uint256"
        },
        {
          "internalType": "bytes",
          "name": "data",
          "type": "bytes"
        }
      ],
      "name": "safeTransferFrom",
      "outputs": [],
      "stateMutability": "nonpayable",
      "type": "function"
    },
    {
      "inputs": [
        {
          "internalType": "address",
          "name": "operator",
          "type": "address"
        },
        {
          "internalType": "bool",
          "name": "approved",
          "type": "bool"
        }
      ],
      "name": "setApprovalForAll",
      "outputs": [],
      "stateMutability": "nonpayable",
      "type": "function"
    },
    {
      "inputs": [
        {
          "internalType": "string",
          "name": "_baseTokenURI",
          "type": "string"
        }
      ],
      "name": "setBaseURI",
      "outputs": [],
      "stateMutability": "nonpayable",
      "type": "function"
    },
    {
      "inputs": [
        {
          "internalType": "bytes4",
          "name": "interfaceId",
          "type": "bytes4"
        }
      ],
      "name": "supportsInterface",
      "outputs": [
        {
          "internalType": "bool",
          "name": "",
          "type": "bool"
        }
      ],
      "stateMutability": "view",
      "type": "function"
    },
    {
      "inputs": [],
      "name": "symbol",
      "outputs": [
        {
          "internalType": "string",
          "name": "",
          "type": "string"
        }
      ],
      "stateMutability": "view",
      "type": "function"
    },
    {
      "inputs": [
        {
          "internalType": "uint256",
          "name": "index",
          "type": "uint256"
        }
      ],
      "name": "tokenByIndex",
      "outputs": [
        {
          "internalType": "uint256",
          "name": "",
          "type": "uint256"
        }
      ],
      "stateMutability": "view",
      "type": "function"
    },
    {
      "inputs": [
        {
          "internalType": "address",
          "name": "owner",
          "type": "address"
        },
        {
          "internalType": "uint256",
          "name": "index",
          "type": "uint256"
        }
      ],
      "name": "tokenOfOwnerByIndex",
      "outputs": [
        {
          "internalType": "uint256",
          "name": "",
          "type": "uint256"
        }
      ],
      "stateMutability": "view",
      "type": "function"
    },
    {
      "inputs": [
        {
          "internalType": "uint256",
          "name": "tokenId",
          "type": "uint256"
        }
      ],
      "name": "tokenURI",
      "outputs": [
        {
          "internalType": "string",
          "name": "",
          "type": "string"
        }
      ],
      "stateMutability": "view",
      "type": "function"
    },
    {
      "inputs": [
        {
          "internalType": "address",
          "name": "_owner",
          "type": "address"
        }
      ],
      "name": "tokensOfOwner",
      "outputs": [
        {
          "internalType": "uint256[]",
          "name": "",
          "type": "uint256[]"
        }
      ],
      "stateMutability": "view",
      "type": "function"
    },
    {
      "inputs": [],
      "name": "totalSupply",
      "outputs": [
        {
          "internalType": "uint256",
          "name": "",
          "type": "uint256"
        }
      ],
      "stateMutability": "view",
      "type": "function"
    },
    {
      "inputs": [
        {
          "internalType": "address",
          "name": "from",
          "type": "address"
        },
        {
          "internalType": "address",
          "name": "to",
          "type": "address"
        },
        {
          "internalType": "uint256",
          "name": "tokenId",
          "type": "uint256"
        }
      ],
      "name": "transferFrom",
      "outputs": [],
      "stateMutability": "nonpayable",
      "type": "function"
    },
    {
      "inputs": [
        {
          "internalType": "address",
          "name": "newOwner",
          "type": "address"
        }
      ],
      "name": "transferOwnership",
      "outputs": [],
      "stateMutability": "nonpayable",
      "type": "function"
    },
    {
      "inputs": [],
      "name": "withdraw",
      "outputs": [],
      "stateMutability": "payable",
      "type": "function"
    }
  ],
  "bytecode": "0x60806040523480156200001157600080fd5b506040516200475538038062004755833981810160405281019062000037919062000511565b6040518060400160405280600e81526020017f416e657a696368756b77754e46540000000000000000000000000000000000008152506040518060400160405280600481526020017f414e4654000000000000000000000000000000000000000000000000000000008152508160009080519060200190620000bb929190620002c4565b508060019080519060200190620000d4929190620002c4565b505050620000f7620000eb6200010f60201b60201c565b6200011760201b60201c565b6200010881620001dd60201b60201c565b506200064a565b600033905090565b6000600a60009054906101000a900473ffffffffffffffffffffffffffffffffffffffff16905081600a60006101000a81548173ffffffffffffffffffffffffffffffffffffffff021916908373ffffffffffffffffffffffffffffffffffffffff1602179055508173ffffffffffffffffffffffffffffffffffffffff168173ffffffffffffffffffffffffffffffffffffffff167f8be0079c531659141344cd1fd0a4f28419497f9722a3daafe3b4186f6b6457e060405160405180910390a35050565b620001ed6200020960201b60201c565b80600c908051906020019062000205929190620002c4565b5050565b620002196200010f60201b60201c565b73ffffffffffffffffffffffffffffffffffffffff166200023f6200029a60201b60201c565b73ffffffffffffffffffffffffffffffffffffffff161462000298576040517f08c379a00000000000000000000000000000000000000000000000000000000081526004016200028f90620005c3565b60405180910390fd5b565b6000600a60009054906101000a900473ffffffffffffffffffffffffffffffffffffffff16905090565b828054620002d29062000614565b90600052602060002090601f016020900481019282620002f6576000855562000342565b82601f106200031157805160ff191683800117855562000342565b8280016001018555821562000342579182015b828111156200034157825182559160200191906001019062000324565b5b50905062000351919062000355565b5090565b5b808211156200037057600081600090555060010162000356565b5090565b6000604051905090565b600080fd5b600080fd5b600080fd5b600080fd5b6000601f19601f8301169050919050565b7f4e487b7100000000000000000000000000000000000000000000000000000000600052604160045260246000fd5b620003dd8262000392565b810181811067ffffffffffffffff82111715620003ff57620003fe620003a3565b5b80604052505050565b60006200041462000374565b9050620004228282620003d2565b919050565b600067ffffffffffffffff821115620004455762000444620003a3565b5b620004508262000392565b9050602081019050919050565b60005b838110156200047d57808201518184015260208101905062000460565b838111156200048d576000848401525b50505050565b6000620004aa620004a48462000427565b62000408565b905082815260208101848484011115620004c957620004c86200038d565b5b620004d68482856200045d565b509392505050565b600082601f830112620004f657620004f562000388565b5b81516200050884826020860162000493565b91505092915050565b6000602082840312156200052a57620005296200037e565b5b600082015167ffffffffffffffff8111156200054b576200054a62000383565b5b6200055984828501620004de565b91505092915050565b600082825260208201905092915050565b7f4f776e61626c653a2063616c6c6572206973206e6f7420746865206f776e6572600082015250565b6000620005ab60208362000562565b9150620005b88262000573565b602082019050919050565b60006020820190508181036000830152620005de816200059c565b9050919050565b7f4e487b7100000000000000000000000000000000000000000000000000000000600052602260045260246000fd5b600060028204905060018216806200062d57607f821691505b60208210811415620006445762000643620005e5565b5b50919050565b6140fb806200065a6000396000f3fe6080604052600436106101b75760003560e01c806355f804b3116100ec57806395d89b411161008a578063c87b56dd11610064578063c87b56dd146105de578063d547cfb71461061b578063e985e9c514610646578063f2fde38b14610683576101b7565b806395d89b4114610561578063a22cb4651461058c578063b88d4fde146105b5576101b7565b8063715018a6116100c6578063715018a6146104b75780638462151c146104ce5780638d859f3e1461050b5780638da5cb5b14610536576101b7565b806355f804b3146104145780636352211e1461043d57806370a082311461047a576101b7565b806323b872dd116101595780633b4b1381116101335780633b4b1381146103885780633ccfd60b146103a457806342842e0e146103ae5780634f6ccce7146103d7576101b7565b806323b872dd146102f75780632f745c591461032057806332cb6b0c1461035d576101b7565b8063095ea7b311610195578063095ea7b31461026157806309d42b301461028a578063144100c7146102b557806318160ddd146102cc576101b7565b806301ffc9a7146101bc57806306fdde03146101f9578063081812fc14610224575b600080fd5b3480156101c857600080fd5b506101e360048036038101906101de9190612a9b565b6106ac565b6040516101f09190612ae3565b60405180910390f35b34801561020557600080fd5b5061020e610726565b60405161021b9190612b97565b60405180910390f35b34801561023057600080fd5b5061024b60048036038101906102469190612bef565b6107b8565b6040516102589190612c5d565b60405180910390f35b34801561026d57600080fd5b5061028860048036038101906102839190612ca4565b6107fe565b005b34801561029657600080fd5b5061029f610916565b6040516102ac9190612cf3565b60405180910390f35b3480156102c157600080fd5b506102ca61091b565b005b3480156102d857600080fd5b506102e16109b2565b6040516102ee9190612cf3565b60405180910390f35b34801561030357600080fd5b5061031e60048036038101906103199190612d0e565b6109bf565b005b34801561032c57600080fd5b5061034760048036038101906103429190612ca4565b610a1f565b6040516103549190612cf3565b60405180910390f35b34801561036957600080fd5b50610372610ac4565b60405161037f9190612cf3565b60405180910390f35b6103a2600480360381019061039d9190612bef565b610ac9565b005b6103ac610c04565b005b3480156103ba57600080fd5b506103d560048036038101906103d09190612d0e565b610d04565b005b3480156103e357600080fd5b506103fe60048036038101906103f99190612bef565b610d24565b60405161040b9190612cf3565b60405180910390f35b34801561042057600080fd5b5061043b60048036038101906104369190612e96565b610d95565b005b34801561044957600080fd5b50610464600480360381019061045f9190612bef565b610db7565b6040516104719190612c5d565b60405180910390f35b34801561048657600080fd5b506104a1600480360381019061049c9190612edf565b610e3e565b6040516104ae9190612cf3565b60405180910390f35b3480156104c357600080fd5b506104cc610ef6565b005b3480156104da57600080fd5b506104f560048036038101906104f09190612edf565b610f0a565b6040516105029190612fca565b60405180910390f35b34801561051757600080fd5b50610520610fb8565b60405161052d9190612cf3565b60405180910390f35b34801561054257600080fd5b5061054b610fc3565b6040516105589190612c5d565b60405180910390f35b34801561056d57600080fd5b50610576610fed565b6040516105839190612b97565b60405180910390f35b34801561059857600080fd5b506105b360048036038101906105ae9190613018565b61107f565b005b3480156105c157600080fd5b506105dc60048036038101906105d791906130f9565b611095565b005b3480156105ea57600080fd5b5061060560048036038101906106009190612bef565b6110f7565b6040516106129190612b97565b60405180910390f35b34801561062757600080fd5b5061063061115f565b60405161063d9190612b97565b60405180910390f35b34801561065257600080fd5b5061066d6004803603810190610668919061317c565b6111ed565b60405161067a9190612ae3565b60405180910390f35b34801561068f57600080fd5b506106aa60048036038101906106a59190612edf565b611281565b005b60007f780e9d63000000000000000000000000000000000000000000000000000000007bffffffffffffffffffffffffffffffffffffffffffffffffffffffff1916827bffffffffffffffffffffffffffffffffffffffffffffffffffffffff1916148061071f575061071e82611305565b5b9050919050565b606060008054610735906131eb565b80601f0160208091040260200160405190810160405280929190818152602001828054610761906131eb565b80156107ae5780601f10610783576101008083540402835291602001916107ae565b820191906000526020600020905b81548152906001019060200180831161079157829003601f168201915b5050505050905090565b60006107c3826113e7565b6004600083815260200190815260200160002060009054906101000a900473ffffffffffffffffffffffffffffffffffffffff169050919050565b600061080982610db7565b90508073ffffffffffffffffffffffffffffffffffffffff168373ffffffffffffffffffffffffffffffffffffffff16141561087a576040517f08c379a00000000000000000000000000000000000000000000000000000000081526004016108719061328f565b60405180910390fd5b8073ffffffffffffffffffffffffffffffffffffffff16610899611432565b73ffffffffffffffffffffffffffffffffffffffff1614806108c857506108c7816108c2611432565b6111ed565b5b610907576040517f08c379a00000000000000000000000000000000000000000000000000000000081526004016108fe90613321565b60405180910390fd5b610911838361143a565b505050565b600281565b6109236114f3565b600061092f600b611571565b9050601861094760058361157f90919063ffffffff16565b10610987576040517f08c379a000000000000000000000000000000000000000000000000000000000815260040161097e9061338d565b60405180910390fd5b60005b60058110156109ae5761099b611595565b80806109a6906133dc565b91505061098a565b5050565b6000600880549050905090565b6109d06109ca611432565b826115ba565b610a0f576040517f08c379a0000000000000000000000000000000000000000000000000000000008152600401610a0690613497565b60405180910390fd5b610a1a83838361164f565b505050565b6000610a2a83610e3e565b8210610a6b576040517f08c379a0000000000000000000000000000000000000000000000000000000008152600401610a6290613529565b60405180910390fd5b600660008473ffffffffffffffffffffffffffffffffffffffff1673ffffffffffffffffffffffffffffffffffffffff168152602001908152602001600020600083815260200190815260200160002054905092915050565b601881565b6000610ad5600b611571565b90506018610aec838361157f90919063ffffffff16565b1115610b2d576040517f08c379a0000000000000000000000000000000000000000000000000000000008152600401610b2490613595565b60405180910390fd5b600082118015610b3e575060028211155b610b7d576040517f08c379a0000000000000000000000000000000000000000000000000000000008152600401610b7490613627565b60405180910390fd5b610b978266038d7ea4c6800061194990919063ffffffff16565b341015610bd9576040517f08c379a0000000000000000000000000000000000000000000000000000000008152600401610bd0906136b9565b60405180910390fd5b60005b82811015610bff57610bec611595565b8080610bf7906133dc565b915050610bdc565b505050565b610c0c6114f3565b600047905060008111610c54576040517f08c379a0000000000000000000000000000000000000000000000000000000008152600401610c4b90613725565b60405180910390fd5b60003373ffffffffffffffffffffffffffffffffffffffff1682604051610c7a90613776565b60006040518083038185875af1925050503d8060008114610cb7576040519150601f19603f3d011682016040523d82523d6000602084013e610cbc565b606091505b5050905080610d00576040517f08c379a0000000000000000000000000000000000000000000000000000000008152600401610cf7906137d7565b60405180910390fd5b5050565b610d1f83838360405180602001604052806000815250611095565b505050565b6000610d2e6109b2565b8210610d6f576040517f08c379a0000000000000000000000000000000000000000000000000000000008152600401610d6690613869565b60405180910390fd5b60088281548110610d8357610d82613889565b5b90600052602060002001549050919050565b610d9d6114f3565b80600c9080519060200190610db392919061298c565b5050565b600080610dc38361195f565b9050600073ffffffffffffffffffffffffffffffffffffffff168173ffffffffffffffffffffffffffffffffffffffff161415610e35576040517f08c379a0000000000000000000000000000000000000000000000000000000008152600401610e2c90613904565b60405180910390fd5b80915050919050565b60008073ffffffffffffffffffffffffffffffffffffffff168273ffffffffffffffffffffffffffffffffffffffff161415610eaf576040517f08c379a0000000000000000000000000000000000000000000000000000000008152600401610ea690613996565b60405180910390fd5b600360008373ffffffffffffffffffffffffffffffffffffffff1673ffffffffffffffffffffffffffffffffffffffff168152602001908152602001600020549050919050565b610efe6114f3565b610f08600061199c565b565b60606000610f1783610e3e565b905060008167ffffffffffffffff811115610f3557610f34612d6b565b5b604051908082528060200260200182016040528015610f635781602001602082028036833780820191505090505b50905060005b82811015610fad57610f7b8582610a1f565b828281518110610f8e57610f8d613889565b5b6020026020010181815250508080610fa5906133dc565b915050610f69565b508092505050919050565b66038d7ea4c6800081565b6000600a60009054906101000a900473ffffffffffffffffffffffffffffffffffffffff16905090565b606060018054610ffc906131eb565b80601f0160208091040260200160405190810160405280929190818152602001828054611028906131eb565b80156110755780601f1061104a57610100808354040283529160200191611075565b820191906000526020600020905b81548152906001019060200180831161105857829003601f168201915b5050505050905090565b61109161108a611432565b8383611a62565b5050565b6110a66110a0611432565b836115ba565b6110e5576040517f08c379a00000000000000000000000000000000000000000000000000000000081526004016110dc90613497565b60405180910390fd5b6110f184848484611bcf565b50505050565b6060611102826113e7565b600061110c611c2b565b9050600081511161112c5760405180602001604052806000815250611157565b8061113684611cbd565b6040516020016111479291906139f2565b6040516020818303038152906040525b915050919050565b600c805461116c906131eb565b80601f0160208091040260200160405190810160405280929190818152602001828054611198906131eb565b80156111e55780601f106111ba576101008083540402835291602001916111e5565b820191906000526020600020905b8154815290600101906020018083116111c857829003601f168201915b505050505081565b6000600560008473ffffffffffffffffffffffffffffffffffffffff1673ffffffffffffffffffffffffffffffffffffffff16815260200190815260200160002060008373ffffffffffffffffffffffffffffffffffffffff1673ffffffffffffffffffffffffffffffffffffffff16815260200190815260200160002060009054906101000a900460ff16905092915050565b6112896114f3565b600073ffffffffffffffffffffffffffffffffffffffff168173ffffffffffffffffffffffffffffffffffffffff1614156112f9576040517f08c379a00000000000000000000000000000000000000000000000000000000081526004016112f090613a88565b60405180910390fd5b6113028161199c565b50565b60007f80ac58cd000000000000000000000000000000000000000000000000000000007bffffffffffffffffffffffffffffffffffffffffffffffffffffffff1916827bffffffffffffffffffffffffffffffffffffffffffffffffffffffff191614806113d057507f5b5e139f000000000000000000000000000000000000000000000000000000007bffffffffffffffffffffffffffffffffffffffffffffffffffffffff1916827bffffffffffffffffffffffffffffffffffffffffffffffffffffffff1916145b806113e057506113df82611d95565b5b9050919050565b6113f081611dff565b61142f576040517f08c379a000000000000000000000000000000000000000000000000000000000815260040161142690613904565b60405180910390fd5b50565b600033905090565b816004600083815260200190815260200160002060006101000a81548173ffffffffffffffffffffffffffffffffffffffff021916908373ffffffffffffffffffffffffffffffffffffffff160217905550808273ffffffffffffffffffffffffffffffffffffffff166114ad83610db7565b73ffffffffffffffffffffffffffffffffffffffff167f8c5be1e5ebec7d5bd14f71427d1e84f3dd0314c0f7b2291e5b200ac8c7c3b92560405160405180910390a45050565b6114fb611432565b73ffffffffffffffffffffffffffffffffffffffff16611519610fc3565b73ffffffffffffffffffffffffffffffffffffffff161461156f576040517f08c379a000000000000000000000000000000000000000000000000000000000815260040161156690613af4565b60405180910390fd5b565b600081600001549050919050565b6000818361158d9190613b14565b905092915050565b60006115a1600b611571565b90506115ad3382611e40565b6115b7600b611e5e565b50565b6000806115c683610db7565b90508073ffffffffffffffffffffffffffffffffffffffff168473ffffffffffffffffffffffffffffffffffffffff161480611608575061160781856111ed565b5b8061164657508373ffffffffffffffffffffffffffffffffffffffff1661162e846107b8565b73ffffffffffffffffffffffffffffffffffffffff16145b91505092915050565b8273ffffffffffffffffffffffffffffffffffffffff1661166f82610db7565b73ffffffffffffffffffffffffffffffffffffffff16146116c5576040517f08c379a00000000000000000000000000000000000000000000000000000000081526004016116bc90613bdc565b60405180910390fd5b600073ffffffffffffffffffffffffffffffffffffffff168273ffffffffffffffffffffffffffffffffffffffff161415611735576040517f08c379a000000000000000000000000000000000000000000000000000000000815260040161172c90613c6e565b60405180910390fd5b6117428383836001611e74565b8273ffffffffffffffffffffffffffffffffffffffff1661176282610db7565b73ffffffffffffffffffffffffffffffffffffffff16146117b8576040517f08c379a00000000000000000000000000000000000000000000000000000000081526004016117af90613bdc565b60405180910390fd5b6004600082815260200190815260200160002060006101000a81549073ffffffffffffffffffffffffffffffffffffffff02191690556001600360008573ffffffffffffffffffffffffffffffffffffffff1673ffffffffffffffffffffffffffffffffffffffff168152602001908152602001600020600082825403925050819055506001600360008473ffffffffffffffffffffffffffffffffffffffff1673ffffffffffffffffffffffffffffffffffffffff16815260200190815260200160002060008282540192505081905550816002600083815260200190815260200160002060006101000a81548173ffffffffffffffffffffffffffffffffffffffff021916908373ffffffffffffffffffffffffffffffffffffffff160217905550808273ffffffffffffffffffffffffffffffffffffffff168473ffffffffffffffffffffffffffffffffffffffff167fddf252ad1be2c89b69c2b068fc378daa952ba7f163c4a11628f55a4df523b3ef60405160405180910390a46119448383836001611fd4565b505050565b600081836119579190613c8e565b905092915050565b60006002600083815260200190815260200160002060009054906101000a900473ffffffffffffffffffffffffffffffffffffffff169050919050565b6000600a60009054906101000a900473ffffffffffffffffffffffffffffffffffffffff16905081600a60006101000a81548173ffffffffffffffffffffffffffffffffffffffff021916908373ffffffffffffffffffffffffffffffffffffffff1602179055508173ffffffffffffffffffffffffffffffffffffffff168173ffffffffffffffffffffffffffffffffffffffff167f8be0079c531659141344cd1fd0a4f28419497f9722a3daafe3b4186f6b6457e060405160405180910390a35050565b8173ffffffffffffffffffffffffffffffffffffffff168373ffffffffffffffffffffffffffffffffffffffff161415611ad1576040517f08c379a0000000000000000000000000000000000000000000000000000000008152600401611ac890613d34565b60405180910390fd5b80600560008573ffffffffffffffffffffffffffffffffffffffff1673ffffffffffffffffffffffffffffffffffffffff16815260200190815260200160002060008473ffffffffffffffffffffffffffffffffffffffff1673ffffffffffffffffffffffffffffffffffffffff16815260200190815260200160002060006101000a81548160ff0219169083151502179055508173ffffffffffffffffffffffffffffffffffffffff168373ffffffffffffffffffffffffffffffffffffffff167f17307eab39ab6107e8899845ad3d59bd9653f200f220920489ca2b5937696c3183604051611bc29190612ae3565b60405180910390a3505050565b611bda84848461164f565b611be684848484611fda565b611c25576040517f08c379a0000000000000000000000000000000000000000000000000000000008152600401611c1c90613dc6565b60405180910390fd5b50505050565b6060600c8054611c3a906131eb565b80601f0160208091040260200160405190810160405280929190818152602001828054611c66906131eb565b8015611cb35780601f10611c8857610100808354040283529160200191611cb3565b820191906000526020600020905b815481529060010190602001808311611c9657829003601f168201915b5050505050905090565b606060006001611ccc84612171565b01905060008167ffffffffffffffff811115611ceb57611cea612d6b565b5b6040519080825280601f01601f191660200182016040528015611d1d5781602001600182028036833780820191505090505b509050600082602001820190505b600115611d8a578080600190039150507f3031323334353637383961626364656600000000000000000000000000000000600a86061a8153600a8581611d7457611d73613de6565b5b0494506000851415611d8557611d8a565b611d2b565b819350505050919050565b60007f01ffc9a7000000000000000000000000000000000000000000000000000000007bffffffffffffffffffffffffffffffffffffffffffffffffffffffff1916827bffffffffffffffffffffffffffffffffffffffffffffffffffffffff1916149050919050565b60008073ffffffffffffffffffffffffffffffffffffffff16611e218361195f565b73ffffffffffffffffffffffffffffffffffffffff1614159050919050565b611e5a8282604051806020016040528060008152506122c4565b5050565b6001816000016000828254019250508190555050565b611e808484848461231f565b6001811115611ec4576040517f08c379a0000000000000000000000000000000000000000000000000000000008152600401611ebb90613e87565b60405180910390fd5b6000829050600073ffffffffffffffffffffffffffffffffffffffff168573ffffffffffffffffffffffffffffffffffffffff161415611f0c57611f0781612445565b611f4b565b8373ffffffffffffffffffffffffffffffffffffffff168573ffffffffffffffffffffffffffffffffffffffff1614611f4a57611f49858261248e565b5b5b600073ffffffffffffffffffffffffffffffffffffffff168473ffffffffffffffffffffffffffffffffffffffff161415611f8e57611f89816125fb565b611fcd565b8473ffffffffffffffffffffffffffffffffffffffff168473ffffffffffffffffffffffffffffffffffffffff1614611fcc57611fcb84826126cc565b5b5b5050505050565b50505050565b6000611ffb8473ffffffffffffffffffffffffffffffffffffffff1661274b565b15612164578373ffffffffffffffffffffffffffffffffffffffff1663150b7a02612024611432565b8786866040518563ffffffff1660e01b81526004016120469493929190613efc565b602060405180830381600087803b15801561206057600080fd5b505af192505050801561209157506040513d601f19601f8201168201806040525081019061208e9190613f5d565b60015b612114573d80600081146120c1576040519150601f19603f3d011682016040523d82523d6000602084013e6120c6565b606091505b5060008151141561210c576040517f08c379a000000000000000000000000000000000000000000000000000000000815260040161210390613dc6565b60405180910390fd5b805181602001fd5b63150b7a0260e01b7bffffffffffffffffffffffffffffffffffffffffffffffffffffffff1916817bffffffffffffffffffffffffffffffffffffffffffffffffffffffff191614915050612169565b600190505b949350505050565b600080600090507a184f03e93ff9f4daa797ed6e38ed64bf6a1f01000000000000000083106121cf577a184f03e93ff9f4daa797ed6e38ed64bf6a1f01000000000000000083816121c5576121c4613de6565b5b0492506040810190505b6d04ee2d6d415b85acef8100000000831061220c576d04ee2d6d415b85acef8100000000838161220257612201613de6565b5b0492506020810190505b662386f26fc10000831061223b57662386f26fc10000838161223157612230613de6565b5b0492506010810190505b6305f5e1008310612264576305f5e100838161225a57612259613de6565b5b0492506008810190505b612710831061228957612710838161227f5761227e613de6565b5b0492506004810190505b606483106122ac57606483816122a2576122a1613de6565b5b0492506002810190505b600a83106122bb576001810190505b80915050919050565b6122ce838361276e565b6122db6000848484611fda565b61231a576040517f08c379a000000000000000000000000000000000000000000000000000000000815260040161231190613dc6565b60405180910390fd5b505050565b600181111561243f57600073ffffffffffffffffffffffffffffffffffffffff168473ffffffffffffffffffffffffffffffffffffffff16146123b35780600360008673ffffffffffffffffffffffffffffffffffffffff1673ffffffffffffffffffffffffffffffffffffffff16815260200190815260200160002060008282546123ab9190613f8a565b925050819055505b600073ffffffffffffffffffffffffffffffffffffffff168373ffffffffffffffffffffffffffffffffffffffff161461243e5780600360008573ffffffffffffffffffffffffffffffffffffffff1673ffffffffffffffffffffffffffffffffffffffff16815260200190815260200160002060008282546124369190613b14565b925050819055505b5b50505050565b6008805490506009600083815260200190815260200160002081905550600881908060018154018082558091505060019003906000526020600020016000909190919091505550565b6000600161249b84610e3e565b6124a59190613f8a565b905060006007600084815260200190815260200160002054905081811461258a576000600660008673ffffffffffffffffffffffffffffffffffffffff1673ffffffffffffffffffffffffffffffffffffffff168152602001908152602001600020600084815260200190815260200160002054905080600660008773ffffffffffffffffffffffffffffffffffffffff1673ffffffffffffffffffffffffffffffffffffffff168152602001908152602001600020600084815260200190815260200160002081905550816007600083815260200190815260200160002081905550505b6007600084815260200190815260200160002060009055600660008573ffffffffffffffffffffffffffffffffffffffff1673ffffffffffffffffffffffffffffffffffffffff16815260200190815260200160002060008381526020019081526020016000206000905550505050565b6000600160088054905061260f9190613f8a565b905060006009600084815260200190815260200160002054905060006008838154811061263f5761263e613889565b5b90600052602060002001549050806008838154811061266157612660613889565b5b9060005260206000200181905550816009600083815260200190815260200160002081905550600960008581526020019081526020016000206000905560088054806126b0576126af613fbe565b5b6001900381819060005260206000200160009055905550505050565b60006126d783610e3e565b905081600660008573ffffffffffffffffffffffffffffffffffffffff1673ffffffffffffffffffffffffffffffffffffffff168152602001908152602001600020600083815260200190815260200160002081905550806007600084815260200190815260200160002081905550505050565b6000808273ffffffffffffffffffffffffffffffffffffffff163b119050919050565b600073ffffffffffffffffffffffffffffffffffffffff168273ffffffffffffffffffffffffffffffffffffffff1614156127de576040517f08c379a00000000000000000000000000000000000000000000000000000000081526004016127d590614039565b60405180910390fd5b6127e781611dff565b15612827576040517f08c379a000000000000000000000000000000000000000000000000000000000815260040161281e906140a5565b60405180910390fd5b612835600083836001611e74565b61283e81611dff565b1561287e576040517f08c379a0000000000000000000000000000000000000000000000000000000008152600401612875906140a5565b60405180910390fd5b6001600360008473ffffffffffffffffffffffffffffffffffffffff1673ffffffffffffffffffffffffffffffffffffffff16815260200190815260200160002060008282540192505081905550816002600083815260200190815260200160002060006101000a81548173ffffffffffffffffffffffffffffffffffffffff021916908373ffffffffffffffffffffffffffffffffffffffff160217905550808273ffffffffffffffffffffffffffffffffffffffff16600073ffffffffffffffffffffffffffffffffffffffff167fddf252ad1be2c89b69c2b068fc378daa952ba7f163c4a11628f55a4df523b3ef60405160405180910390a4612988600083836001611fd4565b5050565b828054612998906131eb565b90600052602060002090601f0160209004810192826129ba5760008555612a01565b82601f106129d357805160ff1916838001178555612a01565b82800160010185558215612a01579182015b82811115612a005782518255916020019190600101906129e5565b5b509050612a0e9190612a12565b5090565b5b80821115612a2b576000816000905550600101612a13565b5090565b6000604051905090565b600080fd5b600080fd5b60007fffffffff0000000000000000000000000000000000000000000000000000000082169050919050565b612a7881612a43565b8114612a8357600080fd5b50565b600081359050612a9581612a6f565b92915050565b600060208284031215612ab157612ab0612a39565b5b6000612abf84828501612a86565b91505092915050565b60008115159050919050565b612add81612ac8565b82525050565b6000602082019050612af86000830184612ad4565b92915050565b600081519050919050565b600082825260208201905092915050565b60005b83811015612b38578082015181840152602081019050612b1d565b83811115612b47576000848401525b50505050565b6000601f19601f8301169050919050565b6000612b6982612afe565b612b738185612b09565b9350612b83818560208601612b1a565b612b8c81612b4d565b840191505092915050565b60006020820190508181036000830152612bb18184612b5e565b905092915050565b6000819050919050565b612bcc81612bb9565b8114612bd757600080fd5b50565b600081359050612be981612bc3565b92915050565b600060208284031215612c0557612c04612a39565b5b6000612c1384828501612bda565b91505092915050565b600073ffffffffffffffffffffffffffffffffffffffff82169050919050565b6000612c4782612c1c565b9050919050565b612c5781612c3c565b82525050565b6000602082019050612c726000830184612c4e565b92915050565b612c8181612c3c565b8114612c8c57600080fd5b50565b600081359050612c9e81612c78565b92915050565b60008060408385031215612cbb57612cba612a39565b5b6000612cc985828601612c8f565b9250506020612cda85828601612bda565b9150509250929050565b612ced81612bb9565b82525050565b6000602082019050612d086000830184612ce4565b92915050565b600080600060608486031215612d2757612d26612a39565b5b6000612d3586828701612c8f565b9350506020612d4686828701612c8f565b9250506040612d5786828701612bda565b9150509250925092565b600080fd5b600080fd5b7f4e487b7100000000000000000000000000000000000000000000000000000000600052604160045260246000fd5b612da382612b4d565b810181811067ffffffffffffffff82111715612dc257612dc1612d6b565b5b80604052505050565b6000612dd5612a2f565b9050612de18282612d9a565b919050565b600067ffffffffffffffff821115612e0157612e00612d6b565b5b612e0a82612b4d565b9050602081019050919050565b82818337600083830152505050565b6000612e39612e3484612de6565b612dcb565b905082815260208101848484011115612e5557612e54612d66565b5b612e60848285612e17565b509392505050565b600082601f830112612e7d57612e7c612d61565b5b8135612e8d848260208601612e26565b91505092915050565b600060208284031215612eac57612eab612a39565b5b600082013567ffffffffffffffff811115612eca57612ec9612a3e565b5b612ed684828501612e68565b91505092915050565b600060208284031215612ef557612ef4612a39565b5b6000612f0384828501612c8f565b91505092915050565b600081519050919050565b600082825260208201905092915050565b6000819050602082019050919050565b612f4181612bb9565b82525050565b6000612f538383612f38565b60208301905092915050565b6000602082019050919050565b6000612f7782612f0c565b612f818185612f17565b9350612f8c83612f28565b8060005b83811015612fbd578151612fa48882612f47565b9750612faf83612f5f565b925050600181019050612f90565b5085935050505092915050565b60006020820190508181036000830152612fe48184612f6c565b905092915050565b612ff581612ac8565b811461300057600080fd5b50565b60008135905061301281612fec565b92915050565b6000806040838503121561302f5761302e612a39565b5b600061303d85828601612c8f565b925050602061304e85828601613003565b9150509250929050565b600067ffffffffffffffff82111561307357613072612d6b565b5b61307c82612b4d565b9050602081019050919050565b600061309c61309784613058565b612dcb565b9050828152602081018484840111156130b8576130b7612d66565b5b6130c3848285612e17565b509392505050565b600082601f8301126130e0576130df612d61565b5b81356130f0848260208601613089565b91505092915050565b6000806000806080858703121561311357613112612a39565b5b600061312187828801612c8f565b945050602061313287828801612c8f565b935050604061314387828801612bda565b925050606085013567ffffffffffffffff81111561316457613163612a3e565b5b613170878288016130cb565b91505092959194509250565b6000806040838503121561319357613192612a39565b5b60006131a185828601612c8f565b92505060206131b285828601612c8f565b9150509250929050565b7f4e487b7100000000000000000000000000000000000000000000000000000000600052602260045260246000fd5b6000600282049050600182168061320357607f821691505b60208210811415613217576132166131bc565b5b50919050565b7f4552433732313a20617070726f76616c20746f2063757272656e74206f776e6560008201527f7200000000000000000000000000000000000000000000000000000000000000602082015250565b6000613279602183612b09565b91506132848261321d565b604082019050919050565b600060208201905081810360008301526132a88161326c565b9050919050565b7f4552433732313a20617070726f76652063616c6c6572206973206e6f7420746f60008201527f6b656e206f776e6572206f7220617070726f76656420666f7220616c6c000000602082015250565b600061330b603d83612b09565b9150613316826132af565b604082019050919050565b6000602082019050818103600083015261333a816132fe565b9050919050565b7f4e6f7420656e6f756768204e465473206c65667420746f207265736572766500600082015250565b6000613377601f83612b09565b915061338282613341565b602082019050919050565b600060208201905081810360008301526133a68161336a565b9050919050565b7f4e487b7100000000000000000000000000000000000000000000000000000000600052601160045260246000fd5b60006133e782612bb9565b91507fffffffffffffffffffffffffffffffffffffffffffffffffffffffffffffffff82141561341a576134196133ad565b5b600182019050919050565b7f4552433732313a2063616c6c6572206973206e6f7420746f6b656e206f776e6560008201527f72206f7220617070726f76656400000000000000000000000000000000000000602082015250565b6000613481602d83612b09565b915061348c82613425565b604082019050919050565b600060208201905081810360008301526134b081613474565b9050919050565b7f455243373231456e756d657261626c653a206f776e657220696e646578206f7560008201527f74206f6620626f756e6473000000000000000000000000000000000000000000602082015250565b6000613513602b83612b09565b915061351e826134b7565b604082019050919050565b6000602082019050818103600083015261354281613506565b9050919050565b7f4e6f7420656e6f756768204e465473206c656674210000000000000000000000600082015250565b600061357f601583612b09565b915061358a82613549565b602082019050919050565b600060208201905081810360008301526135ae81613572565b9050919050565b7f43616e6e6f74206d696e7420737065636966696564206e756d626572206f662060008201527f4e4654732e000000000000000000000000000000000000000000000000000000602082015250565b6000613611602583612b09565b915061361c826135b5565b604082019050919050565b6000602082019050818103600083015261364081613604565b9050919050565b7f4e6f7420656e6f75676820657468657220746f207075726368617365204e465460008201527f732e000000000000000000000000000000000000000000000000000000000000602082015250565b60006136a3602283612b09565b91506136ae82613647565b604082019050919050565b600060208201905081810360008301526136d281613696565b9050919050565b7f4e6f206574686572206c65667420746f20776974686472617700000000000000600082015250565b600061370f601983612b09565b915061371a826136d9565b602082019050919050565b6000602082019050818103600083015261373e81613702565b9050919050565b600081905092915050565b50565b6000613760600083613745565b915061376b82613750565b600082019050919050565b600061378182613753565b9150819050919050565b7f5472616e73666572206661696c65642e00000000000000000000000000000000600082015250565b60006137c1601083612b09565b91506137cc8261378b565b602082019050919050565b600060208201905081810360008301526137f0816137b4565b9050919050565b7f455243373231456e756d657261626c653a20676c6f62616c20696e646578206f60008201527f7574206f6620626f756e64730000000000000000000000000000000000000000602082015250565b6000613853602c83612b09565b915061385e826137f7565b604082019050919050565b6000602082019050818103600083015261388281613846565b9050919050565b7f4e487b7100000000000000000000000000000000000000000000000000000000600052603260045260246000fd5b7f4552433732313a20696e76616c696420746f6b656e2049440000000000000000600082015250565b60006138ee601883612b09565b91506138f9826138b8565b602082019050919050565b6000602082019050818103600083015261391d816138e1565b9050919050565b7f4552433732313a2061646472657373207a65726f206973206e6f74206120766160008201527f6c6964206f776e65720000000000000000000000000000000000000000000000602082015250565b6000613980602983612b09565b915061398b82613924565b604082019050919050565b600060208201905081810360008301526139af81613973565b9050919050565b600081905092915050565b60006139cc82612afe565b6139d681856139b6565b93506139e6818560208601612b1a565b80840191505092915050565b60006139fe82856139c1565b9150613a0a82846139c1565b91508190509392505050565b7f4f776e61626c653a206e6577206f776e657220697320746865207a65726f206160008201527f6464726573730000000000000000000000000000000000000000000000000000602082015250565b6000613a72602683612b09565b9150613a7d82613a16565b604082019050919050565b60006020820190508181036000830152613aa181613a65565b9050919050565b7f4f776e61626c653a2063616c6c6572206973206e6f7420746865206f776e6572600082015250565b6000613ade602083612b09565b9150613ae982613aa8565b602082019050919050565b60006020820190508181036000830152613b0d81613ad1565b9050919050565b6000613b1f82612bb9565b9150613b2a83612bb9565b9250827fffffffffffffffffffffffffffffffffffffffffffffffffffffffffffffffff03821115613b5f57613b5e6133ad565b5b828201905092915050565b7f4552433732313a207472616e736665722066726f6d20696e636f72726563742060008201527f6f776e6572000000000000000000000000000000000000000000000000000000602082015250565b6000613bc6602583612b09565b9150613bd182613b6a565b604082019050919050565b60006020820190508181036000830152613bf581613bb9565b9050919050565b7f4552433732313a207472616e7366657220746f20746865207a65726f2061646460008201527f7265737300000000000000000000000000000000000000000000000000000000602082015250565b6000613c58602483612b09565b9150613c6382613bfc565b604082019050919050565b60006020820190508181036000830152613c8781613c4b565b9050919050565b6000613c9982612bb9565b9150613ca483612bb9565b9250817fffffffffffffffffffffffffffffffffffffffffffffffffffffffffffffffff0483118215151615613cdd57613cdc6133ad565b5b828202905092915050565b7f4552433732313a20617070726f766520746f2063616c6c657200000000000000600082015250565b6000613d1e601983612b09565b9150613d2982613ce8565b602082019050919050565b60006020820190508181036000830152613d4d81613d11565b9050919050565b7f4552433732313a207472616e7366657220746f206e6f6e20455243373231526560008201527f63656976657220696d706c656d656e7465720000000000000000000000000000602082015250565b6000613db0603283612b09565b9150613dbb82613d54565b604082019050919050565b60006020820190508181036000830152613ddf81613da3565b9050919050565b7f4e487b7100000000000000000000000000000000000000000000000000000000600052601260045260246000fd5b7f455243373231456e756d657261626c653a20636f6e736563757469766520747260008201527f616e7366657273206e6f7420737570706f727465640000000000000000000000602082015250565b6000613e71603583612b09565b9150613e7c82613e15565b604082019050919050565b60006020820190508181036000830152613ea081613e64565b9050919050565b600081519050919050565b600082825260208201905092915050565b6000613ece82613ea7565b613ed88185613eb2565b9350613ee8818560208601612b1a565b613ef181612b4d565b840191505092915050565b6000608082019050613f116000830187612c4e565b613f1e6020830186612c4e565b613f2b6040830185612ce4565b8181036060830152613f3d8184613ec3565b905095945050505050565b600081519050613f5781612a6f565b92915050565b600060208284031215613f7357613f72612a39565b5b6000613f8184828501613f48565b91505092915050565b6000613f9582612bb9565b9150613fa083612bb9565b925082821015613fb357613fb26133ad565b5b828203905092915050565b7f4e487b7100000000000000000000000000000000000000000000000000000000600052603160045260246000fd5b7f4552433732313a206d696e7420746f20746865207a65726f2061646472657373600082015250565b6000614023602083612b09565b915061402e82613fed565b602082019050919050565b6000602082019050818103600083015261405281614016565b9050919050565b7f4552433732313a20746f6b656e20616c7265616479206d696e74656400000000600082015250565b600061408f601c83612b09565b915061409a82614059565b602082019050919050565b600060208201905081810360008301526140be81614082565b905091905056fea26469706673582212207f0ad73517e922a82ff12d1bf536a05ad9af144e0e25340b53006119a6dd9c3464736f6c63430008090033",
  "linkReferences": {},
  "deployedLinkReferences": {}
}